:020000040000FA
:0400000007EF00F016
:0A0008005E8225ED1AF0D3EF1DF023
:100800000057414954494E472E2E2E0050313A2070
:10081000252E326620730050323A20252E32662073
:10082000730049444C452E2E2E0050313A202D2085
:10083000730050323A202D207300494E46004E413D
:100840004E00696E66006E616E006C660000000E00
:1008500000017B6F000E7A6F3EC08CF03FC08DF0C0
:1008600040C08EF041C08FF08FBF3BEF04F039EFF6
:1008700004F051EF04F0000E7B6F010E7A6F8CC014
:1008800001F08DC002F08EC003F08FC004F06CEC5C
:100890001DF001C08CF002C08DF003C08EF004C0CA
:1008A0008FF0000E0001936F000E926FBEC07FF0BC
:1008B000BFC080F07A517B11D8A461EF04F063EFE0
:1008C00004F06AEF04F0C2A568EF04F06AEF04F0E8
:1008D00084EF04F07A517B11D8A471EF04F073EF28
:1008E00004F079EF04F0000E656F2B0E646F7DEF5E
:1008F00004F0000E656F2D0E646F64C000F1924B22
:10090000932B7F07D8A080078CC001F08DC002F028
:100910008EC003F08FC004F076EC18F001040210D2
:10092000D8A495EF04F097EF04F0EEEF04F0BF0EBB
:10093000436EFF0E446E4250456E466A4350452654
:100940004450462246500AE11A0E455CD8A0ABEF4F
:1009500004F0AEEF04F0010EAFEF04F0000E000162
:10096000666F676B66516711D8B4B9EF04F0BBEFDF
:1009700004F0C9EF04F0000E9225016E010E9321E0
:10098000026E3A0E036E080E046E93EC1CF0D5EF67
:1009900004F0000E9225016E010E9321026E420EAC
:1009A000036E080E046E93EC1CF00001FD0E7F2711
:1009B000FF0E80233CC017F03DC018F0000E196EEA
:1009C000010E1A6E7FC01BF080C01CF060EC19F0A5
:1009D00017C03CF018C03DF025EF0AF08CC001F0C4
:1009E0008DC002F08EC003F08FC004F076EC18F0DA
:1009F00001500210D8A4FFEF04F001EF05F058EF0A
:100A000005F0BF0E436EFF0E446E4250456E466ABF
:100A1000435045264450462246500AE11A0E455C92
:100A2000D8A015EF05F018EF05F0010E19EF05F04D
:100A3000000E0001686F696B68516911D8B423EF2B
:100A400005F025EF05F033EF05F0000E9225016E5D
:100A5000010E9321026E3E0E036E080E046E93EC9F
:100A60001CF03FEF05F0000E9225016E010E932160
:100A7000026E460E036E080E046E93EC1CF000012D
:100A8000FD0E7F27FF0E80233CC017F03DC018F0FD
:100A9000000E196E010E1A6E7FC01BF080C01CF094
:100AA00060EC19F017C03CF018C03DF025EF0AF0DB
:100AB000000E0001946F000E956F800E966F3F0E32
:100AC000976F000E916F000E906F8CC001F08DC07B
:100AD00002F08EC003F08FC004F0000E056E000E11
:100AE000066E000E076E000E086ED8EC1AF0D8B035
:100AF0007CEF05F07EEF05F001EF06F09DEF05F0CD
:100B000094C001F095C002F096C003F097C004F0C5
:100B1000000E056E000E066E200E076E410E086E6A
:100B2000CAEC0EF001C094F002C095F003C096F03C
:100B300004C097F00001904B912B8CC01AF08DC02F
:100B40001BF08EC01CF08FC01DF0000E056E000E55
:100B5000066E200E076E410E086E94C001F095C01F
:100B600002F096C003F097C004F0CAEC0EF001C08A
:100B70001EF002C01FF003C020F004C021F0F4EC0E
:100B800017F0D8B0C6EF05F0C8EF05F080EF05F01C
:100B9000E8EF05F094C00FF095C010F096C011F08A
:100BA00097C012F0000E136E000E146E200E156E1C
:100BB000410E166EDFEC10F00FC094F010C095F0EF
:100BC00011C096F012C097F000019007D8A09107CD
:100BD0008CC01AF08DC01BF08EC01CF08FC01DF0B1
:100BE00094C01EF095C01FF096C020F097C021F071
:100BF000F4EC17F0D8A0FFEF05F001EF06F0CAEF14
:100C000005F042C007F0086A63EC1CF007500001D1
:100C1000816F81C07EF0670E8119D8A412EF06F0B3
:100C200014EF06F03AEF06F0C051C111D8A41BEF43
:100C300006F01DEF06F021EF06F0000EC16F010E69
:100C4000C06FC1BF2EEF06F0C15106E1C005D8B09C
:100C50002CEF06F02EEF06F034EF06F0000E7D6F5D
:100C6000060E7C6F43EF06F0C0C07CF0C1C07DF083
:100C700043EF06F0C1BF3FEF06F041EF06F02EEF65
:100C800006F034EF06F0670E8119D8A44AEF06F09B
:100C90004CEF06F07BEF06F091AF5AEF06F0FC0E3A
:100CA000905DFF0E9159D8A058EF06F05AEF06F06C
:100CB00079EF06F0FF0E436EFF0E446E7CC045F0E8
:100CC0007DC046F043504526445046229051455C35
:100CD0004650800A476E9151800A4758D8A073EF5A
:100CE00006F075EF06F079EF06F0660E7E6F7BEF8B
:100CF00006F0650E7E6F7CC074F07DC075F0670EE7
:100D00008119D8A486EF06F088EF06F098EF06F078
:100D1000660E7E19D8A48FEF06F091EF06F09AEFD9
:100D200006F091BF98EF06F096EF06F09AEF06F006
:100D3000744B752B660E7E19D8A4A1EF06F0A3EFB5
:100D400006F0C3EF06F091BFAAEF06F0A8EF06F099
:100D5000B6EF06F0000E946F000E956F800E966F42
:100D60003F0E976F000E916F000E906F670E811906
:100D7000D8B4BDEF06F0BFEF06F0C3EF06F0905118
:100D8000742791517523000E8B6F000E8A6F8CC0F3
:100D900082F08DC083F08EC084F08FC085F094C047
:100DA00060F095C061F096C062F097C063F054EFB8
:100DB00007F082C00FF083C010F084C011F085C02E
:100DC00012F094C013F095C014F096C015F097C0BF
:100DD00016F0DFEC10F00FC028F010C029F011C0A1
:100DE0002AF012C02BF01EEC14F028C086F029C0A7
:100DF00087F02AC088F02BC089F086C001F087C038
:100E000002F088C003F089C004F071EC17F001C053
:100E100078F002C079F082C01AF083C01BF084C061
:100E20001CF085C01DF094C005F095C006F096C07A
:100E300007F097C008F086C001F087C002F088C0B4
:100E400003F089C004F0CAEC0EF001C01EF002C02D
:100E50001FF003C020F004C021F0EAEC1CF01AC01F
:100E600082F01BC083F01CC084F01DC085F094C0CC
:100E70000FF095C010F096C011F097C012F0000E60
:100E8000136E000E146E200E156E410E166EDFEC02
:100E900010F00FC094F010C095F011C096F012C081
:100EA00097F000018A4B8B2B74518A5D8B51800A1D
:100EB000436E7551800A4358D8A061EF07F063EF85
:100EC00007F0D9EF06F094C001F095C002F096C08B
:100ED00003F097C004F0000E056E000E066EA00E23
:100EE000076E400E086ECAEC0EF001C086F002C01C
:100EF00087F003C088F004C089F082C01AF083C074
:100F00001BF084C01CF085C01DF086C01EF087C099
:100F10001FF088C020F089C021F0F4EC17F0D8B0A1
:100F200094EF07F096EF07F0A1EF07F0000E000135
:100F3000866F000E876F000E886F000E896FCAEFF4
:100F400007F082C001F083C002F084C003F085C0C6
:100F500004F086C005F087C006F088C007F089C09D
:100F600008F0D8EC1AF0D8A0B8EF07F0BAEF07F005
:100F7000CAEF07F0000178B1C0EF07F0C2EF07F049
:100F8000CAEF07F0000E866F000E876F000E886FA5
:100F9000000E896F8CC001F08DC002F08EC003F08E
:100FA0008FC004F086C005F087C006F088C007F047
:100FB00089C008F026EC0AF001C082F002C083F07C
:100FC00003C084F004C085F060C094F061C095F067
:100FD00062C096F063C097F0650E00017E19D8B428
:100FE000F4EF07F0F6EF07F0FCEF07F090C076F0B3
:100FF00091C077F000EF08F0000E776F000E766F6B
:10100000000E736F000E726F000E716F000E706F26
:10101000000E8B6F000E8A6FFBEF08F082C00FF09E
:1010200083C010F084C011F085C012F094C013F09A
:1010300095C014F096C015F097C016F0DFEC10F0D4
:101040000FC028F010C029F011C02AF012C02BF0F8
:101050001EEC14F028C086F029C087F02AC088F062
:101060002BC089F086C001F087C002F088C003F071
:1010700089C004F071EC17F001C078F002C079F07B
:101080000001C2B946EF08F048EF08F065EF08F03C
:1010900078517911D8A44FEF08F051EF08F065EFBF
:1010A00008F0670E8119D8A458EF08F05AEF08F03D
:1010B00065EF08F077BF61EF08F05FEF08F065EFCC
:1010C00008F0704B712BAFEF08F072517311D8A478
:1010D0006CEF08F06EEF08F098EF08F077BF75EF4F
:1010E00008F073EF08F098EF08F0000E9225D96E23
:1010F000010E9321DA6E2E0EDF6E924B932B7F073B
:10110000D8A08007000E736F010E726F98EF08F081
:10111000000E9225D96E010E9321DA6E300EDF6E2D
:10112000924B932B7F07D8A080077007D8A0710738
:1011300070517111D8A49FEF08F0A1EF08F088EF6B
:1011400008F0000E9225D96E010E9321DA6E7851C7
:10115000300FDF6E924B932B7F07D8A0800782C0A1
:101160001AF083C01BF084C01CF085C01DF094C031
:1011700005F095C006F096C007F097C008F086C04D
:1011800001F087C002F088C003F089C004F0CAEC07
:101190000EF001C01EF002C01FF003C020F004C01A
:1011A00021F0EAEC1CF01AC082F01BC083F01CC0D6
:1011B00084F01DC085F094C00FF095C010F096C06B
:1011C00011F097C012F0000E136E000E146E200E78
:1011D000156E410E166EDFEC10F00FC094F010C0CB
:1011E00095F011C096F012C097F000017607D8A0D4
:1011F00077078A4B8B2B74518A5D8B51800A436E23
:101200007551800A4358D8B008EF09F00AEF09F089
:1012100018EF09F093BF16EF09F0935109E14B0E57
:10122000925DD8A016EF09F018EF09F00EEF08F064
:1012300072517311D8A41FEF09F021EF09F032EFBA
:1012400009F0C2A926EF09F028EF09F032EF09F002
:10125000000E9225D96E010E9321DA6E2E0EDF6EEE
:10126000924B932B000E9225D96E010E9321DA6ECC
:10127000000EDF6E650E7E19D8A441EF09F043EF32
:1012800009F013EF0AF0000E8B6F4F0E8A6F000EFD
:101290008A25D96E010E8B21DA6E000EDF6E000EEC
:1012A0007B6F000E7A6F91BF5AEF09F058EF09F08B
:1012B00062EF09F0000E7B6F010E7A6F906D911F47
:1012C000D8B0912B000E7D6F020E7C6F93EF09F06A
:1012D0008A07D8A08B07000E8A25D96E010E8B21B4
:1012E000DA6E90C001F091C002F0000E046E0A0E9A
:1012F000036E80EC1AF00150300FDF6E90C001F0E9
:1013000091C002F0000E046E0A0E036EC3EC19F0D9
:1013100001C090F002C091F000017C07D8A07D07C9
:101320007F07D8A0800790519111D8A49AEF09F0B7
:101330009CEF09F068EF09F07DBFA9EF09F07D513E
:1013400006E17C05D8B0A7EF09F0A9EF09F068EF36
:1013500009F08A07D8A08B077A517B11D8A4B3EF84
:1013600009F0B5EF09F0BBEF09F0000E6B6F2B0E23
:101370006A6FBFEF09F0000E6B6F2D0E6A6F000EE3
:101380008A25D96E010E8B21DA6E6AC0DFFF7F07D6
:10139000D8A080078A07D8A08B07BF0E436EFF0E28
:1013A000446E4250456E466A43504526445046229C
:1013B00046500AE11A0E455CD8A0E1EF09F0E4EFCF
:1013C00009F0010EE5EF09F0000E6E6F6F6B6E51C4
:1013D0006F11D8A4EEEF09F0F0EF09F0F6EF09F085
:1013E000000E6D6F650E6C6FFAEF09F0000E6D6FF9
:1013F000450E6C6F000E8A25D96E010E8B21DA6EB8
:101400006CC0DFFF7F07D8A08007000E9225016E19
:10141000010E9321026E000E8A25036E010E8B21B0
:10142000046E93EC1CF03CC017F03DC018F0000EA9
:10143000196E010E1A6E7FC01BF080C01CF060ECAC
:1014400019F017C03CF018C03DF012000450800B9A
:101450000D6E045004240F6E03AE31EF0AF033EF2B
:101460000AF034EF0AF00F800F50D8B43AEF0AF0C8
:101470003CEF0AF051EF0AF00F28D8A442EF0AF02F
:1014800044EF0AF04CEF0AF0000E016E000E026EFF
:10149000000E036E000E046E038E000E046E59EFF4
:1014A0000AF0000E016E000E026E000E036E000EBA
:1014B000046E0850800B0E6E0D500E18D8B463EFFA
:1014C0000AF065EF0AF066EF0AF00D8C0850082468
:1014D0000E6E07AE6EEF0AF070EF0AF071EF0AF0D1
:1014E0000E800E50D8B477EF0AF079EF0AF08EEF45
:1014F0000AF00E28D8A47FEF0AF081EF0AF089EFF6
:101500000AF0000E056E000E066E000E076E000E4D
:10151000086E078E000E086E96EF0AF0000E056E3C
:10152000000E066E000E076E000E086E0F500E5C69
:10153000D8B09DEF0AF09FEF0AF0C6EF0AF00DACAD
:10154000A4EF0AF0A6EF0AF0A8EF0AF0800E0D1A39
:101550000FC010F00EC00FF010C00EF001C010F060
:1015600005C001F010C005F002C010F006C002F086
:1015700010C006F003C010F007C003F010C007F061
:1015800004C010F008C004F010C008F0000E106E87
:101590000F500EC009F00A6A095E000E0A5A0ABE10
:1015A000DBEF0AF00A5009E11A0E095CD8A0DBEF64
:1015B0000AF0DDEF0AF014EF0BF0015002100310F7
:1015C0000410D8A4E6EF0AF0E9EF0AF0010EEAEF02
:1015D0000AF0000E106E000E016E000E026E000E7C
:1015E000036E000E046E0EC00FF01DEF0BF010A086
:1015F000FCEF0AF0FEEF0AF004EF0BF0D890103089
:101600000109106E06EF0BF0D890103201A00BEF1D
:101610000BF00DEF0BF00EEF0BF0108E04340432D4
:101620000332023201320F2A0E500F5CD8A01BEF9A
:101630000BF01DEF0BF0F7EF0AF00DBC22EF0BF0F3
:1016400024EF0BF064EF0BF00F50D8A42AEF0BF04F
:101650002CEF0BF036EF0BF0000E016E000E026E59
:10166000000E036E000E046E85EF0CF0055001268F
:1016700006500222075003220850042204A043EF20
:101680000BF045EF0BF0F1EF0BF010A04AEF0BF071
:101690004CEF0BF052EF0BF0D89010300109106EA8
:1016A00054EF0BF0D890103201A059EF0BF05BEF24
:1016B0000BF05CEF0BF0108E043404320332023274
:1016C00001320F2AF1EF0BF00550015C0650025871
:1016D000075003580450800A096E0850800A0958C0
:1016E000D8B075EF0BF077EF0BF0A2EF0BF00150D5
:1016F000055C096E025006580A6E035007580B6EBF
:10170000045008580C6EFF0E0924016EFF0E0A20CB
:10171000026EFF0E0B20036EFF0E0C20046E800E77
:101720000D1A106C1050D8A498EF0BF09AEF0BF034
:10173000AAEF0BF0010E0126000E02220322042262
:10174000AAEF0BF00550015E0650025A0750035AEB
:101750000850045A0150021003100410D8A4B3EF2B
:101760000BF0B5EF0BF0EAEF0BF01050D8A4BBEF85
:101770000BF0BDEF0BF0EAEF0BF0000E016E000E68
:10178000026E000E036E000E046E85EF0CF0D89012
:10179000013602360336043610AED1EF0BF0D3EF2C
:1017A0000BF0D4EF0BF0018010A0D9EF0BF0DBEFC2
:1017B0000BF0DFEF0BF0D8801036E1EF0BF0D89094
:1017C00010360F50D8B4E7EF0BF0E9EF0BF0EAEF6B
:1017D0000BF00F0603AEEFEF0BF0F1EF0BF0C7EFDE
:1017E0000BF0000E0E6E10AEF8EF0BF0FAEF0BF0F0
:1017F00012EF0CF010C009F07F0E0916D8B403EFF9
:101800000CF005EF0CF009EF0CF0010E0E6E12EF6C
:101810000CF001A00EEF0CF010EF0CF012EF0CF03A
:1018200005EF0CF00E50D8B418EF0CF01AEF0CF0D6
:1018300045EF0CF0010E0126000E022203220422C5
:1018400004A025EF0CF027EF0CF045EF0CF001C0E1
:1018500009F002C00AF003C00BF004C00CF00C3415
:101860000C320B320A32093209C001F00AC002F010
:101870000BC003F00CC004F00F28D8B442EF0CF0FA
:1018800044EF0CF045EF0CF00F2A0F28D8B44BEFC3
:101890000CF04DEF0CF055EF0CF00F50D8A453EFB7
:1018A0000CF055EF0CF067EF0CF0000E016E000E1F
:1018B000026E000E036E000E046E0F50D8A463EF8C
:1018C0000CF065EF0CF067EF0CF0000E0D6E0FA042
:1018D0006CEF0CF06EEF0CF071EF0CF0038E72EF0A
:1018E0000CF0039ED8900F30046E0DAE7AEF0CF022
:1018F0007CEF0CF07DEF0CF0048E01C001F002C013
:1019000002F003C003F004C004F012004AC0D9FF83
:101910004BC0DAFFDECFF6FFDDCFF7FF0800F55052
:10192000250AD8A496EF0CF098EF0CF0AEEF0EF06D
:101930004AC0D9FF4BC0DAFFDE2A000EDD22000EBE
:101940000001BF6F000EBE6FBEC0C2F0BFC0C3F0CB
:10195000C069C1694AC0D9FF4BC0DAFFDECFF6FFCC
:10196000DDCFF7FF0800F5502E0AD8A4BAEF0CF02F
:10197000BCEF0CF039EF0DF0000EC16F000EC06F20
:101980004AC0D9FF4BC0DAFFDE2A000EDD224AC072
:10199000D9FF4BC0DAFFDECFF6FFDDCFF7FF08003F
:1019A000F5502A0AD8A4D7EF0CF0D9EF0CF0F6EFD7
:1019B0000CF04AC0D9FF4BC0DAFFDE2A000EDD2250
:1019C0004CC0D9FF4DC0DAFFDFCF4EF0020EDE264D
:1019D000DFCF4FF0000EDD224EC0D9FF4FC0DAFF3F
:1019E000DECFC0F0DDCFC1F039EF0DF04AC0D9FF36
:1019F0004BC0DAFFDECF08F0DDCF09F001EC16F0C6
:101A000008C0C0F009C0C1F00DEF0DF04AC0D9FF09
:101A10004BC0DAFFDE2A000EDD22D00E4E6EFF0E26
:101A20004F6E4AC0D9FF4BC0DAFFDECFF6FFDDCFE5
:101A3000F7FF0800F550506E516A4E5050264F5037
:101A4000512251500AE10A0E505CD8A02AEF0DF045
:101A50002DEF0DF0010E2EEF0DF0000E526E536AB9
:101A600052505310D8A437EF0DF039EF0DF006EFB8
:101A70000DF04AC0D9FF4BC0DAFFDECFF6FFDDCF55
:101A8000F7FF0800F550076E086A63EC1CF007507A
:101A90005A6E5A50D8B44FEF0DF051EF0DF089EF58
:101AA0000DF04AC0D9FF4BC0DAFFDECF4EF0DDCFDC
:101AB0004FF0010E4E26000E4F224EC0F6FF4FC0D3
:101AC000F7FF0800F550076E086A63EC1CF007503A
:101AD0005B6E5B50D8B46FEF0DF071EF0DF089EFD6
:101AE0000DF04AC0D9FF4BC0DAFFDECF4EF0DDCF9C
:101AF0004FF0020E4E26000E4F224EC0F6FF4FC092
:101B0000F7FF0800F550076E086A63EC1CF00750F9
:101B10005C6E660E5A18D8A490EF0DF092EF0DF09F
:101B2000D2EF0DF04AC0D9FF4BC0DAFFDECFF6FF8F
:101B3000DDCFF7FF0800F5CF5DF04AC0D9FF4BC0FD
:101B4000DAFFDE2A000EDD224CC0D9FF4DC0DAFFDD
:101B5000DFCF4EF0040EDE26DFCF4FF0000EDD2289
:101B60004EC0D9FF4FC0DAFFDECF56F0DECF57F0C0
:101B7000DECF58F0DECF59F048C03CF049C03DF010
:101B800056C03EF057C03FF058C040F059C041F039
:101B90005DC042F027EC04F03CC048F03DC049F085
:101BA000C9EF0EF05A0E016E000E026E4A0E036E61
:101BB000080E046E000E066E020E056EF5EC18F0AF
:101BC00001500210D8A4E7EF0DF0E9EF0DF078EF27
:101BD0000EF04AC0D9FF4BC0DAFFDECF4EF0DDCFAA
:101BE0004FF0010E4E26000E4F224EC0F6FF4FC0A2
:101BF000F7FF0800F5CF5DF0BF0E4E6EFF0E4F6E83
:101C00004AC0D9FF4BC0DAFFDECFF6FFDDCFF7FFCA
:101C10000800F550506E516A4E5050264F505122D8
:101C200051500AE11A0E505CD8A019EF0EF01CEFCB
:101C30000EF0010E1DEF0EF0000E546E556A54505A
:101C40005510D8B426EF0EF028EF0EF042EF0EF04C
:101C50004CC0D9FF4DC0DAFFDFCF4EF0040EDE26B8
:101C6000DFCF4FF0000EDD224EC0D9FF4FC0DAFFAC
:101C7000DECF56F0DECF57F0DECF58F0DECF59F092
:101C80005AEF0EF04CC0D9FF4DC0DAFFDFCF4EF057
:101C9000040EDE26DFCF4FF0000EDD224EC0D9FF4E
:101CA0004FC0DAFFDECF56F0DECF57F0DECF58F070
:101CB000DECF59F0020E4AC0D9FF4BC0DAFFDE2654
:101CC000000EDD2248C03CF049C03DF056C03EF059
:101CD00057C03FF058C040F059C041F05DC042F0DD
:101CE00027EC04F03CC048F03DC049F0C9EF0EF0CD
:101CF0004AC0D9FF4BC0DAFFDECFF6FFDDCFF7FFDA
:101D00000800F550250AD8A488EF0EF08AEF0EF0EF
:101D1000A1EF0EF04AC0D9FF4BC0DAFFDE2A000E59
:101D2000DD22000E086E250E076E48C009F049C07E
:101D30000AF02DEC1BF0000E496E010E486EC9EF43
:101D40000EF04AC0D9FF4BC0DAFFDE2A000EDD22BA
:101D5000000E496E000E486EC9EF0EF04AC0D9FF62
:101D60004BC0DAFFDECFF6FFDDCFF7FF0800F550FE
:101D7000076E086A48C009F049C00AF02DEC1BF054
:101D80004AC0D9FF4BC0DAFFDE2A000EDD229BEFEE
:101D90000EF012000450800B0D6E04500424136EDC
:101DA00003AED5EF0EF0D7EF0EF0D8EF0EF01380A4
:101DB0001350D8B4DEEF0EF0E0EF0EF0F3EF0EF0BC
:101DC0001328D8A4E6EF0EF0E8EF0EF0F0EF0EF0D7
:101DD000000E016E000E026E000E036E000E046E09
:101DE000038EFBEF0EF0000E016E000E026E000E71
:101DF000036E000E046E0850800B0D1A0850082464
:101E0000126E07AE06EF0FF008EF0FF009EF0FF0BC
:101E100012801250D8B40FEF0FF011EF0FF024EF33
:101E20000FF01228D8A417EF0FF019EF0FF021EFE1
:101E30000FF0000E056E000E066E000E076E000E0F
:101E4000086E078E2CEF0FF0000E056E000E066E6A
:101E5000000E076E000E086E1250D8B432EF0FF06D
:101E600034EF0FF03CEF0FF01350D8A43AEF0FF01F
:101E70003CEF0FF046EF0FF0000E016E000E026E09
:101E8000000E036E000E046EDEEF10F0075001022C
:101E9000F3CF18F0F4CF19F018500E6E0F6A106AD5
:101EA000116A1950146E156A166A176A06500202F2
:101EB000F3CF18F0F4CF19F018500E26000E0F22B1
:101EC0001022112219501426000E15221622172254
:101ED00005500302F3CF18F0F4CF19F018500E2676
:101EE000000E0F221022112219501426000E152266
:101EF0001622172210C011F00FC010F00EC00FF004
:101F00000E6A05500202F3CF18F0F4CF19F0185002
:101F10000E2619500F22000E1022000E112206501C
:101F20000102F3CF18F0F4CF19F018500E26195013
:101F30000F22000E1022000E112210C011F00FC04F
:101F400010F00EC00FF00E6A05500102F3CF18F02A
:101F5000F4CF19F018500E2619500F22000E10223F
:101F6000000E112207500202F3CF18F0F4CF19F03F
:101F70001850142619501522000E1622000E172292
:101F800006500302F3CF18F0F4CF19F018501426BE
:101F900019501522000E1622000E172207500302B8
:101FA000F3CF18F0F4CF19F01850096E19500A6EDB
:101FB0000B6A0C6A0BC00CF00AC00BF009C00AF0E7
:101FC000096A095014260A5015220B5016220C508B
:101FD00017220EC009F00FC00AF010C00BF011C09C
:101FE0000CF0190EF9EF0FF0D8900C320B320A32C8
:101FF0000932E82EF4EF0FF0095014260A5015228A
:102000000B5016220C50172210C011F00FC010F008
:102010000EC00FF00E6A125013C009F00A6A0926AA
:10202000000E0A22820E0924186EFF0E0A20196E75
:102030002FEF10F0D890143615361636173611AE2D
:1020400024EF10F026EF10F027EF10F01480D89056
:102050000E360F36103611361806D8A0190616AEF1
:1020600034EF10F036EF10F01AEF10F0000E126E91
:1020700011AE3DEF10F03FEF10F063EF10F0FF0EE8
:102080000E14096EFF0E0F140A6EFF0E10140B6E65
:102090007F0E11140C6E09500A100B100C10D8B4DE
:1020A00054EF10F056EF10F05AEF10F0010E126ED0
:1020B00063EF10F014A05FEF10F061EF10F063EF2A
:1020C00010F056EF10F01250D8B469EF10F06BEF2B
:1020D00010F08FEF10F0010E1426000E15221622BC
:1020E000172217A076EF10F078EF10F08FEF10F0B6
:1020F00014C009F015C00AF016C00BF017C00CF0A0
:102100000C340C320B320A32093209C014F00AC006
:1021100015F00BC016F00CC017F0184A192A19BE9A
:102120009AEF10F0195008E11828D8A09AEF10F093
:102130009CEF10F0A6EF10F0000E146E000E156E5E
:10214000800E166E7F0E176ED4EF10F019BEB3EF2F
:1021500010F0195006E11804D8B0B1EF10F0B3EF49
:1021600010F0BFEF10F0000E146E000E156E000E92
:10217000166E000E176E000E0D6ED4EF10F018C024
:1021800013F0FF0E1416FF0E15167F0E1616000E16
:10219000171613A0CEEF10F0D0EF10F0D1EF10F023
:1021A000168ED8901330176E0D50171214C001F010
:1021B00015C002F016C003F017C004F01200125050
:1021C000800B1F6E12501224266E11AEEAEF10F033
:1021D000ECEF10F0EDEF10F026802650D8B4F3EFBE
:1021E00010F0F5EF10F00AEF11F02628D8A4FBEF5D
:1021F00010F0FDEF10F005EF11F0000E0F6E000E65
:10220000106E000E116E000E126E118E000E126E08
:1022100012EF11F0000E0F6E000E106E000E116E18
:10222000000E126E1650800B1F1A16501624276EC1
:1022300015AE1DEF11F01FEF11F020EF11F0278008
:102240002750D8B426EF11F028EF11F03DEF11F030
:102250002728D8A42EEF11F030EF11F038EF11F04D
:10226000000E136E000E146E000E156E000E166E2C
:10227000158E000E166E45EF11F0000E136E000E57
:10228000146E000E156E000E166E135014101510FD
:102290001610D8A44EEF11F050EF11F068EF11F0C6
:1022A000000E0F6E000E106E000E116E000E126EFC
:1022B000800E11127F0E12121F5012120FC00FF05B
:1022C00010C010F011C011F012C012F0ABEF12F0FC
:1022D0002650D8A46EEF11F070EF11F07AEF11F0E4
:1022E000000E0F6E000E106E000E116E000E126EBC
:1022F000ABEF12F0275026C017F0186A175E000ED9
:10230000185A7F0E1724206E000E1820216E0FC061
:102310001BF010C01CF011C01DF012C01EF0000E0A
:102320000F6E000E106E000E116E000E126E000E7B
:10233000226E000E236E000E246E000E256E000E1F
:10234000276EDBEF11F02750D8B4A9EF11F0ABEFF7
:1023500011F0C2EF11F0D8901B361C361D361E3618
:10236000D8900F3610361136123625AEBAEF11F06E
:10237000BCEF11F0BDEF11F00F80D890223623365C
:102380002436253613501B5C14501C5815501D580C
:1023900016501E58D8A0CFEF11F0D1EF11F0DAEFA0
:1023A00011F0258C13501B5E14501C5A15501D5AE9
:1023B00016501E5A272A190E2764E1EF11F0E3EF99
:1023C00011F0A3EF11F01B501C101D101E10D8B4FB
:1023D000ECEF11F0EEEF11F006EF12F0228006EFB5
:1023E00012F0D8900F3610361136123625AEFBEFAC
:1023F00011F0FDEF11F0FEEF11F00F80D8902236B2
:102400002336243625362006D8A0210611AE0BEF40
:1024100012F00DEF12F0F1EF11F0000E276E25AE65
:1024200014EF12F016EF12F03AEF12F0FF0E221432
:10243000176EFF0E2314186EFF0E2414196E7F0EF4
:1024400025141A6E1750181019101A10D8B42BEF43
:1024500012F02DEF12F031EF12F0010E276E3AEF6D
:1024600012F00FA036EF12F038EF12F03AEF12F040
:102470002DEF12F02750D8B440EF12F042EF12F0D7
:1024800066EF12F0010E0F26000E1022112212220A
:1024900012A04DEF12F04FEF12F066EF12F00FC0E6
:1024A00017F010C018F011C019F012C01AF01A3449
:1024B0001A3219321832173217C00FF018C010F044
:1024C00019C011F01AC012F0204A212A21BE71EF62
:1024D00012F0215008E12028D8A071EF12F073EF1C
:1024E00012F07EEF12F0000E216E2068000E0F6ECB
:1024F000000E106E000E116E000E126E21BE8BEFDC
:1025000012F0215006E12004D8B089EF12F08BEFD1
:1025100012F099EF12F0000E216E000E206E000EE8
:102520000F6E000E106E000E116E000E126E000E79
:102530001F6E20C026F026A0A0EF12F0A2EF12F02E
:10254000A5EF12F0118EA6EF12F0119ED890263052
:10255000126E5CEF11F01200F2EF13F0CC51CD11BE
:10256000D8B4B5EF12F0B7EF12F01DEF14F0CA5166
:10257000CB11D8B4BEEF12F0C0EF12F01DEF14F083
:10258000000EC56F000EC46F1DEF14F08384030EA0
:102590000001AB6F8A0EAA6F550EE82EFED7AA2F48
:1025A000FCD7AB2FFAD700D083940F0E0001D36F66
:1025B000030ED26F3CEC1EF0010E0001A06F080E5E
:1025C000A16FBFEC1DF0000E0001C56F010EC46FBE
:1025D000000ED16F000ED06F1DEF14F0FDEC1BF05C
:1025E0001DEF14F0C451C511D8B4F9EF12F0FBEF90
:1025F00012F013EF13F0CC51CD11D8B402EF13F059
:1026000004EF13F013EF13F0CA51CB11D8B40BEF52
:1026100013F00DEF13F013EF13F00F0ED36F040E42
:10262000D26F1DEF14F0C451C511D8A41AEF13F0E6
:102630001CEF13F022EF13F00F0ED36F020ED26FC8
:102640001DEF14F00F0ED36F030ED26F1DEF14F0B9
:10265000C451C511D8B42FEF13F031EF13F01DEFB3
:1026600014F0CC51CD11D8A438EF13F03AEF13F099
:102670001DEF14F0D0C001F0D1C002F0000E02BE78
:10268000FF0E036E046E010E27EC15F001C00FF073
:1026900002C010F003C011F004C012F0000E136E5F
:1026A000000E146EC80E156E420E166EDFEC10F0A2
:1026B0000FC0B8F010C0B9F011C0BAF012C0BBF032
:1026C0000001C851C911D8B468EF13F06AEF13F0D4
:1026D00078EF13F0B8C0B4F0B9C0B5F0BAC0B6F036
:1026E000BBC0B7F0000ECB6F010ECA6F8280828232
:1026F000CA51CB11D8A47FEF13F081EF13F086EF0E
:1027000013F00D0ECF6F010ECE6F8280000ECD6FD5
:10271000010ECC6FC9EC16F01DEF14F0C451C511B9
:10272000D8B495EF13F097EF13F01DEF14F0CA51E2
:10273000CB11D8A49EEF13F0A0EF13F01DEF14F00F
:10274000D0C001F0D1C002F0000E02BEFF0E036E39
:10275000046E010E27EC15F001C00FF002C010F05E
:1027600003C011F004C012F0000E136E000E146EC0
:10277000C80E156E420E166EDFEC10F00FC0B4F0EE
:1027800010C0B5F011C0B6F012C0B7F00001C651CC
:10279000C711D8B4CEEF13F0D0EF13F0DEEF13F083
:1027A000B4C0B8F0B5C0B9F0B6C0BAF0B7C0BBF0AD
:1027B000000ECD6F010ECC6F82808282CC51CD1184
:1027C000D8A4E5EF13F0E7EF13F0ECEF13F00D0EE4
:1027D000CF6F020ECE6F8282000ECB6F010ECA6FDA
:1027E0008AEF13F0D2C0AAF0D3C0ABF00001AB5116
:1027F0000F0AD8B4FEEF13F01DEF14F0AA51010A2E
:10280000D8B41DEF14F0030AD8B4C6EF12F0010AD1
:10281000D8B4AEEF12F0070AD8B4EEEF12F0010A06
:10282000D8B428EF13F0030AD8B48EEF13F0010ADE
:10283000D8B4F2EF12F01DEF14F01200ACC038F073
:10284000ADC039F0AEC03AF0AFC03BF028C038F0B0
:1028500029C039F02AC03AF02BC03BF0810E2C6E13
:10286000FF0E2D6E38C02EF039C02FF03AC030F078
:102870003BC031F0180E42EF14F0D89031323032B4
:102880002F322E32E82E3DEF14F02E502C24366ECF
:10289000000E2D20376E37BE57EF14F0375009E188
:1028A000170E365CD8A057EF14F059EF14F063EF11
:1028B00014F028C028F029C029F02AC02AF02BC023
:1028C0002BF026EF15F037BE68EF14F06AEF14F026
:1028D000DAEF14F036C02CF0FF0E2D6EFF0E2E6EC8
:1028E0007F0E2F6E000E306E2C6679EF14F081EFA4
:1028F00014F0303430322F322E322D322C2E74EF31
:1029000014F02DC032F02EC033F02FC034F030C0A0
:1029100035F0325038142C6E335039142D6E34503B
:102920003A142E6E35503B142F6E2C502D102E1055
:102930002F10D8A49EEF14F0A0EF14F0A2EF14F023
:1029400059EF14F038C02CF039C02DF03AC02EF0F9
:102950003BC02FF0200EB2EF14F0D8902F322E3261
:102960002D322C32E82EADEF14F02C502D102E10FD
:102970002F10D8B4BEEF14F0C0EF14F0C8EF14F06D
:10298000325038263350392234503A2235503B22C7
:10299000321C2C6E331C2D6E341C2E6E351C2F6E8B
:1029A0002C5038162D5039162E503A162F503B16F3
:1029B0001EEF15F038C02CF039C02DF03AC02EF0C3
:1029C0003BC02FF0200EEAEF14F0D8902F322E32B9
:1029D0002D322C32E82EE5EF14F02C502D102E1055
:1029E0002F10D8A4F6EF14F0F8EF14F002EF15F062
:1029F000000E386E000E396E000E3A6E000E3B6E01
:102A00001EEF15F0D89038342C6E39342D6E3A34D0
:102A10002E6E3B342F6E2C502D102E102F10D8B44C
:102A200014EF15F016EF15F01EEF15F0000E386ECE
:102A3000000E396E800E3A6EBF0E3B6E38C028F025
:102A400039C029F03AC02AF03BC02BF01200096EC1
:102A50000950D8B42EEF15F030EF15F052EF15F005
:102A600004BE37EF15F035EF15F052EF15F001C049
:102A700005F002C006F003C007F004C008F0051E10
:102A8000061E071E081E052A000E0622072208221F
:102A900005C00BF006C00CF007C00DF008C00EF02A
:102AA0005AEF15F001C00BF002C00CF003C00DF09E
:102AB00004C00EF00150021003100410D8A463EFFC
:102AC00015F065EF15F06FEF15F0000E016E000EBA
:102AD000026E000E036E000E046E00EF16F0960EEE
:102AE0000A6E79EF15F00A2AD8900E320D320C32A8
:102AF0000B32000E0B14056E000E0C14066E000E49
:102B00000D14076EFE0E0E14086E05500610071009
:102B10000810D8A48EEF15F090EF15F073EF15F0B4
:102B20009EEF15F00A2A010E0B26000E0C220D2234
:102B30000E22D8900E320D320C320B32000E0B14D6
:102B4000056E000E0C14066E000E0D14076EFF0EBF
:102B50000E14086E0550061007100810D8A4B3EF25
:102B600015F0B5EF15F092EF15F0BDEF15F00A0670
:102B7000D8900B360C360D360E360DBEC2EF15F062
:102B8000C4EF15F0CCEF15F0020E0A60CAEF15F095
:102B9000CCEF15F0B7EF15F00AB0D1EF15F0D3EF89
:102BA00015F0D4EF15F00D9ED8900A320AC005F04A
:102BB000066A076A086A05C008F0076A066A056AB5
:102BC00005500B1206500C1207500D1208500E1231
:102BD0000950D8B4EEEF15F0F0EF15F0F8EF15F05E
:102BE00004BEF7EF15F0F5EF15F0F8EF15F00E8EC7
:102BF0000BC001F00CC002F00DC003F00EC004F0D9
:102C00001200000E166E000E156E000E0F6E000EF6
:102C10000E6E0DEF16F0084A092A010E146E08C058
:102C2000F6FF09C0F7FF0800F550200AD8B41BEFE3
:102C300016F01DEF16F03AEF16F0F70E0A6EFF0EC3
:102C40000B6E08C0F6FF09C0F7FF0800F5500C6EC8
:102C50000D6A0A500C260B500D220D5009E1050E8D
:102C60000C5CD8A036EF16F038EF16F03AEF16F0FD
:102C7000000E146E14C010F0116A10501110D8A478
:102C800044EF16F046EF16F00BEF16F050EF16F08B
:102C9000000E0F6E010E0E6E084A092A85EF16F01F
:102CA00008C0F6FF09C0F7FF0800F5500A6E0B6A6E
:102CB0000B50000AD8B45FEF16F085EF16F00A50FB
:102CC0002B0AD8B44CEF16F0060AD8B448EF16F029
:102CD00085EF16F015C001F016C002F0000E046E6C
:102CE0000A0E036EE6EC1DF008C0F6FF09C0F7FF00
:102CF0000800F550015E000E025A300E0124156ED8
:102D0000000E0220166E4CEF16F0D00E0A6EFF0E6B
:102D10000B6E08C0F6FF09C0F7FF0800F5500C6EF7
:102D20000D6A0A500C260B500D220D500AE10A0EB6
:102D30000C5CD8A09EEF16F0A1EF16F0010EA2EFEA
:102D400016F0000E126E136A12501310D8A4ABEFD7
:102D500016F0ADEF16F06AEF16F00E500F10D8A473
:102D6000B4EF16F0B6EF16F0C4EF16F015C00AF087
:102D700016C00BF00A1E0B1E0A4A0B2A0AC008F0E6
:102D80000BC009F0C8EF16F015C008F016C009F026
:102D900012003CEC1EF00001CC51CD11D8B4D3EFA1
:102DA00016F0D5EF16F002EF17F0CA51CB11D8B4D8
:102DB000DCEF16F0DEEF16F002EF17F00C0EA06F4E
:102DC000080EA16FB8C0A2F0B9C0A3F0BAC0A4F0B9
:102DD000BBC0A5F0BFEC1DF0000E056E020E2FEC7F
:102DE0001DF0170E0001A06F080EA16FB4C0A2F075
:102DF000B5C0A3F0B6C0A4F0B7C0A5F0BFEC1DF0FD
:102E000070EF17F0CC51CD11D8B409EF17F00BEFDC
:102E100017F030EF17F0CA51CB11D8A412EF17F00A
:102E200014EF17F030EF17F00C0EA06F080EA16F23
:102E3000B8C0A2F0B9C0A3F0BAC0A4F0BBC0A5F05E
:102E4000BFEC1DF0000E056E020E2FEC1DF0320ED1
:102E50000001A06F080EA16FBFEC1DF070EF17F01E
:102E6000CC51CD11D8A437EF17F039EF17F05EEF42
:102E700017F0CA51CB11D8B440EF17F042EF17F05A
:102E80005EEF17F02A0EA06F080EA16FBFEC1DF0C9
:102E9000000E056E020E2FEC1DF0170E0001A06F44
:102EA000080EA16FB4C0A2F0B5C0A3F0B6C0A4F0E4
:102EB000B7C0A5F0BFEC1DF070EF17F02A0EA06FA1
:102EC000080EA16FBFEC1DF0000E056E020E2FEC78
:102ED0001DF0320E0001A06F080EA16FBFEC1DF0B7
:102EE0001200033404340A6E0A50D8A47AEF17F0A3
:102EF0007CEF17F086EF17F0000E016E000E026EE9
:102F0000000E036E000E046EF3EF17F001C005F023
:102F100002C006F003C007F004C008F0200E96EFD0
:102F200017F0D8900832073206320532E82E91EFBA
:102F300017F00550096E038EFF0E0116FF0E0216E4
:102F4000FF0E0316000E0416960E0A5E0ABEADEFC3
:102F500017F0ABEF17F0C3EF17F00A50800A970F86
:102F6000D8B0B5EF17F0B7EF17F0B9EF17F07CEF67
:102F700017F0D89004320332023201320A3EB9EF20
:102F800017F0DBEF17F01F0E0A64C9EF17F0CBEF55
:102F900017F0D3EF17F07CEF17F0D8900136023618
:102FA000033604360A060A50D8A4D9EF17F0DBEF2F
:102FB00017F0CDEF17F00950D8B4E1EF17F0E3EFB9
:102FC00017F0EBEF17F0041E031E021E016C000E3B
:102FD00002220322042201C001F002C002F003C059
:102FE00003F004C004F01200000E1A14226E000E4A
:102FF0001B14236E800E1C14246E7F0E1D14256E70
:103000002250231024102510D8A409EF18F00BEF3C
:1030100018F013EF18F0000E1A6E000E1B6E000E63
:103020001C6E000E1D6E000E1E14226E000E1F146C
:10303000236E800E2014246E7F0E2114256E2250E4
:10304000231024102510D8A428EF18F02AEF18F028
:1030500032EF18F0000E1E6E000E1F6E000E206E76
:10306000000E216E1DAE37EF18F039EF18F042EF69
:1030700018F01A6C1B1ED8B01B2A1C1ED8B01C2AB4
:10308000800E1D5621AE47EF18F049EF18F052EFB1
:1030900018F01E6C1F1ED8B01F2A201ED8B0202A80
:1030A000800E2156000E1A1A000E1B1A000E1C1A52
:1030B000800E1D1A000E1E1A000E1F1A000E201A76
:1030C000800E211A1E501A5C1F501B5820501C588D
:1030D00021501D58D8B06FEF18F071EF18F074EF51
:1030E00018F0D89075EF18F0D8801200B0C00BF02F
:1030F000B1C00CF0B2C00DF0B3C00EF001C00BF0C7
:1031000002C00CF003C00DF004C00EF00BC005F0BF
:103110000CC006F00DC007F00EC008F0180E96EFB8
:1031200018F0D8900832073206320532E82E91EFB7
:1031300018F00550096E0A6A09500A10D8A4A3EFC6
:1031400018F0A5EF18F0C5EF18F0D8900B34056E05
:103150000C34066E0D34076E0E34086E05500610E2
:1031600007100810D8A4B7EF18F0B9EF18F0BFEFA8
:1031700018F0000E026E020E016EF4EF18F0000E51
:10318000026E030E016EF4EF18F009280A10D8A49D
:10319000CCEF18F0CEEF18F0F0EF18F00BC005F000
:1031A0000CC006F00DC007F00EC008F0090ED89054
:1031B0000536063607360836E82ED7EF18F00550E4
:1031C000061007100810D8B4E8EF18F0EBEF18F06D
:1031D000010EECEF18F0000E016E026AF4EF18F029
:1031E000000E026E040E016E120001C008F002C053
:1031F00009F003C00AF004C00BF00506D8A00606CB
:10320000052806E10628D8A408EF19F00AEF19F0FE
:1032100017EF19F0000E026E000E016E5FEF19F04D
:10322000084A092A0A4A0B2A0506D8A0060608C039
:10323000D9FF09C0DAFFDF50D8B421EF19F023EF2E
:1032400019F04EEF19F00AC0F6FF0BC0F7FF0800A7
:10325000F5500009D8B42FEF19F031EF19F04EEF07
:1032600019F005500610D8B438EF19F03AEF19F0FC
:103270004EEF19F008C0D9FF09C0DAFFDF50076E22
:103280000AC0F6FF0BC0F7FF0800F5500718D8B4C6
:103290004CEF19F04EEF19F010EF19F008C0D9FFFC
:1032A00009C0DAFFDF50076E0AC0F6FF0BC0F7FF58
:1032B0000800F550075C016E026AD8A002061200F1
:1032C0000001C2A166EF19F068EF19F072EF19F072
:1032D00019C010F01AC011F017C012F018C013F086
:1032E0000DEC1DF01CBE77EF19F079EF19F07FEFB0
:1032F00019F01BC020F01CC021F083EF19F0000E64
:10330000216E000E206E000E1F6E000E1E6E95EFD9
:1033100019F0000E086E200E076E17C009F018C0D5
:103320000AF02DEC1BF01E4A1F2A20501E5C1F5075
:10333000800A1D6E2150800A1D58D8A0A2EF19F0F6
:10334000A4EF19F089EF19F00001C2B1AAEF19F04A
:10335000ACEF19F0B6EF19F019C010F01AC011F067
:1033600017C012F018C013F00DEC1DF019C001F0D9
:103370001AC002F0A4EC1DF020500124176E215059
:103380000220186E1200000E066E04BECCEF19F07B
:10339000CAEF19F0D2EF19F0036C041ED8B0042A5A
:1033A000010E066E02BED9EF19F0D7EF19F0DFEF6C
:1033B00019F0016C021ED8B0022A010E061A000E86
:1033C000086E000E076E03500410D8B4EAEF19F02F
:1033D000ECEF19F014EF1AF0010E056EF4EF19F08E
:1033E000D89003360436052A04AEF9EF19F0FBEF46
:1033F00019F0F0EF19F0D890073608360350015C49
:1034000004500258D8A007EF1AF009EF1AF00EEF97
:103410001AF00350015E0450025A0780D89004321B
:103420000332052EFBEF19F00650D8B41AEF1AF04C
:103430001CEF1AF020EF1AF0076C081ED8B0082A0B
:1034400007C001F008C002F012000600F2A22BEF44
:103450001AF02DEF1AF045EF1AF0060E0001D219FE
:1034600007E10F0ED319D8A438EF1AF03AEF1AF08B
:103470003EEF1AF0000EC96F010EC86F0F0ED36F2A
:10348000050ED26FF2927EEF1AF0F0A04AEF1AF01A
:103490004CEF1AF064EF1AF0050E0001D21907E1A3
:1034A0000F0ED319D8A457EF1AF059EF1AF05DEFA9
:1034B0001AF0000EC76F010EC66F0F0ED36F060E07
:1034C000D26FF0907EEF1AF0F0A269EF1AF06BEF76
:1034D0001AF073EF1AF00F0E0001D36F070ED26FC0
:1034E000F0927EEF1AF09EA278EF1AF07AEF1AF0BF
:1034F0007EEF1AF00001D04BD12B9E925E9211000C
:10350000000E066E02BE89EF1AF087EF1AF08FEFF9
:103510001AF0016C021ED8B0022A010E066E04BE1B
:1035200096EF1AF094EF1AF09AEF1AF0036C041E5B
:10353000D8B0042A03500410D8B4A1EF1AF0A3EFB6
:103540001AF0C7EF1AF0010E056EABEF1AF0D89023
:1035500003360436052A04AEB0EF1AF0B2EF1AF0C3
:10356000A7EF1AF00350015C04500258D8A0BBEF3B
:103570001AF0BDEF1AF0C1EF1AF00350015E0450CB
:10358000025AD89004320332052EB2EF1AF00650D8
:10359000D8B4CDEF1AF0CFEF1AF0D3EF1AF0016CD8
:1035A000021ED8B0022A01C001F002C002F01200CF
:1035B000000E0114096E000E02140A6E800E031430
:1035C0000B6E7F0E04140C6E09500A100B100C10B9
:1035D000D8A4EDEF1AF0EFEF1AF0F7EF1AF0000EA3
:1035E000016E000E026E000E036E000E046E000EE1
:1035F0000514096E000E06140A6E800E07140B6E79
:103600007F0E08140C6E09500A100B100C10D8A471
:103610000CEF1BF00EEF1BF016EF1BF0000E056E0B
:10362000000E066E000E076E000E086E05500118A3
:103630000FE1065002180CE10750031809E1085089
:103640000418D8B426EF1BF028EF1BF02BEF1BF06B
:10365000D8902CEF1BF0D880120009500A10D8B473
:1036600034EF1BF036EF1BF03FEF1BF009500A1050
:10367000D8A43DEF1BF03FEF1BF044EF1BF00750C9
:1036800066EC1EF077EF1BF020EE04F00950D9260F
:103690000A50DA22DE50DE10D8B451EF1BF053EF9F
:1036A0001BF06EEF1BF020EE04F00950D9260A50F3
:1036B000DA2210EE02F00950E1260A50E222DE5032
:1036C000E65CE650800A0F6EDE50800A0F58D8B0D4
:1036D0006CEF1BF06EEF1BF077EF1BF020EE02F0AB
:1036E0000950D9260A50DA22DE2A000EDD22120005
:1036F000026E838202C001F0010E0116013A83506E
:103700000118EF0B0118836E02C001F0D89001324E
:10371000010E0116013A014683500118DF0B011812
:10372000836E02C001F0D8900132D8900132010EB0
:103730000116013A0146014683500118BF0B0118DA
:10374000836E02C001F0D8900132D8900132D89037
:103750000132010E011601320132835001187F0B34
:103760000118836E100EE82EFED700D08392100E43
:10377000E82EFED700D0120083928398839A839C10
:10378000839E410E056EEE0EE82EFED7052EFCD769
:1037900000D0030E78EC1BF0060E056E300EE82EFE
:1037A000FED7052EFCD700D0030E78EC1BF0210EBF
:1037B000E82EFED700F0030E78EC1BF0020E78EC3A
:1037C0001BF0010E036E000EF9EC1DF0030E056EEA
:1037D000980EE82EFED7052EFCD7280E036E000E9D
:1037E000F9EC1DF00C0E036E000EF9EC1DF0060E48
:1037F000036E000EF9EC1DF01200000E0001C56F03
:10380000000EC46F000ED16F000ED06F000ECF6F90
:10381000000ECE6F000EB86F000EB96F000EBA6FBB
:10382000000EBB6F000EB46F000EB56F000EB66FCA
:10383000000EB76F000ECD6F000ECC6F000ECB6F79
:10384000000ECA6F829082920F0ED36F010ED26F5C
:103850003CEC1EF0220E0001A06F080EA16FBFEC21
:103860001DF012009AC09EF09BC09FF0000E000158
:10387000BD6F000EBC6F50EF1CF098C048F099C0AF
:1038800049F09E0E4A6E000E4B6E9CC04CF09DC0DF
:103890004DF086EC0CF048500001BC274950BD2388
:1038A0009EC0F6FF9FC0F7FF0800F5500009D8A49E
:1038B0005CEF1CF05EEF1CF03DEF1CF0BCC098F01C
:1038C000BDC099F01200BF0E096EFF0E0A6E07C050
:1038D0000BF008C00CF009500B260A500C220C50BB
:1038E0000AE11A0E0B5CD8A078EF1CF07BEF1CF0FD
:1038F000010E7CEF1CF0000E0D6E0E6A0D500E10C6
:10390000D8B485EF1CF087EF1CF08EEF1CF0200E72
:103910000710076E0850086E92EF1CF007C007F002
:1039200008C008F0120003C007F004C008F001C08E
:1039300009F002C00AF00750056E0850066E074AEB
:10394000082A05C0F6FF06C0F7FFF86A09C0D9FFCC
:103950000AC0DAFF094A0A2A070EF76403D00800F2
:10396000F55005D0F6CFE1FFF7CFE2FFE750DF6E6D
:10397000DF50D8A4BEEF1CF0C0EF1CF09BEF1CF092
:103980001200010E076E200E01180210D8B4CBEF02
:103990001CF0CDEF1CF0E6EF1CF0F70E036EFF0EEF
:1039A000046E01C005F002C006F003500526045065
:1039B0000622065009E1050E055CD8A0E2EF1CF0D6
:1039C000E4EF1CF0E6EF1CF0000E076E07C001F0FC
:1039D000026A1200000E1E1A000E1F1A000E201A94
:1039E000800E211A1AC001F01BC002F01CC003F0A7
:1039F0001DC004F01EC005F01FC006F020C007F077
:103A000021C008F026EC0AF001C01AF002C01BF039
:103A100003C01CF004C01DF01200000E166E000E54
:103A2000156E1EEF1DF014C007F0086A12C009F0F1
:103A300013C00AF02DEC1BF0154A162A155010245D
:103A4000D96E16501120DA6EDF50146E1450D8A4BF
:103A50002CEF1DF02EEF1DF013EF1DF01200066E7F
:103A6000000E076E0604D8A438EF1DF03AEF1DF0E3
:103A70003CEF1DF0800E076E020E0618D8A443EF2F
:103A80001DF045EF1DF047EF1DF0C00E076E07500B
:103A90000524076E07C003F0000EF9EC1DF01200BC
:103AA000BF0E036EFF0E046E01C005F002C006F0EB
:103AB000035005260450062206500AE11A0E055C42
:103AC000D8A065EF1DF068EF1DF0010E69EF1DF045
:103AD000000E016E026A1200015002100310041061
:103AE000D8B475EF1DF077EF1DF07FEF1DF0000EDD
:103AF000011A000E021A000E031A800E041A01C0E9
:103B000001F002C002F003C003F004C004F0120090
:103B1000D00E036EFF0E046E01C005F002C006F069
:103B2000035005260450062206500AE10A0E055CE1
:103B3000D8A09DEF1DF0A0EF1DF0010EA1EF1DF02C
:103B4000000E016E026A120001C003F002C004F010
:103B5000ACEF1DF0014A022A01C0D9FF02C0DAFF12
:103B6000DF50D8A4B6EF1DF0B8EF1DF0AAEF1DF09E
:103B70000350015C016E04500258026E1200A20E46
:103B80000001A86F000EA96F000E986F000E996FCC
:103B9000A0C09AF0A1C09BF0A80E9C6F000E9D6F74
:103BA00032EC1CF0120001EE00F0500EEE6AE80656
:103BB000FDE100EEACF0280EEE6AE806FDE15E9055
:103BC0005E92000EF86E000155EF1EF001500302E8
:103BD000F3CF05F0F4CF06F001500402F3500626AF
:103BE00002500302F350062605C001F006C002F0A1
:103BF0001200046E04B002D0839001D0838000D004
:103C000000D000F003380F0B78EC1BF003500F0BC3
:103C100078EC1BF012009490949294949380938289
:103C20009384938093829384959095929598959A96
:103C3000959C959E959412009D9CF28CF28E000EA0
:103C4000F16E000EF06EF292F288F090F086F09233
:103C5000F088F090F092F28E12008290829282941C
:103C600083940BEC1EF01CEC1EF0BCEC1BF03CEC47
:103C70001EF049EC1EF01200010E036E000EF9EC6E
:103C80001DF0030E056E980EE82EFED7052EFCD70C
:103C90001200CA92CA80FA0ECB6ECA8CCA9ACA980F
:103CA000CA869D829E92CA8412002DEC1EF0FDEC05
:103CB0001BF0ACEC12F059EF1EF007EF00F0056EB0
:103CC00005C003F0010EF9EC1DF01200066E06505F
:063CD0005FEC1EF0120083
:020000040020DA
:08000000FFFFFFFFFFFFFFFF00
:020000040030CA
:0E00000000001F1EFF8181FF0FC00FE00F40A8
:00000001FF
