:020000040000FA
:0400000007EF00F016
:0A0008005E828FED0BF006EF10F0A2
:100800000054696D6D65723A202564004F4B0000FD
:1008100094C0ACF095C0ADF096C0AEF097C0AFF00C
:1008200098C0B0F099C0B1F09AC0B2F09BC0B3F0DC
:100830000001B3BF1EEF04F021EF04F0010E22EF20
:1008400004F0000EAA6FAB6BAA51AB11D8B42BEF1A
:1008500004F02DEF04F03DEF04F0B31FB21FB11F01
:10086000B01FAF1FAE1FAD1FAC6D000EAD23AE238A
:10087000AF23B023B123B223B323C9BF42EF04F0A7
:1008800044EF04F045EF04F0CA93C9BF52EF04F0FF
:10089000C95106E1C805D8B050EF04F052EF04F09A
:1008A00058EF04F0000EA76F010EA66F5CEF04F086
:1008B000C8C0A6F0C9C0A7F0C6C0A8F0C7C0A9F0BC
:1008C000AA51AB11D8A467EF04F069EF04F070EF00
:1008D00004F0CAA56EEF04F070EF04F073EF04F0BB
:1008E000A807D8A0A907000EB56F1F0EB46F000EA1
:1008F000ED6FF8EF04F0B407D8A0B507CE0EB4251D
:10090000D96E000EB521DA6EACC071F0ADC072F0D8
:10091000AEC073F0AFC074F0B0C075F0B1C076F087
:10092000B2C077F0B3C078F00A0E796F000E7A6F1C
:10093000000E7B6F000E7C6F000E7D6F000E7E6FD1
:10094000000E7F6F000E806F2AEC0AF071C09CF0E1
:1009500072C09DF073C09EF074C09FF075C0A0F08F
:1009600076C0A1F077C0A2F078C0A3F09CC083F05D
:100970009EC084F0F8EC0EF000018351300FDF6E62
:10098000A607D8A0A707A807D8A0A907ACC071F0F0
:10099000ADC072F0AEC073F0AFC074F0B0C075F00F
:1009A000B1C076F0B2C077F0B3C078F00A0E796FBC
:1009B000000E7A6F000E7B6F000E7C6F000E7D6F55
:1009C000000E7E6F000E7F6F000E806FA1EC08F0AE
:1009D00071C0ACF072C0ADF073C0AEF074C0AFF0D7
:1009E00075C0B0F076C0B1F077C0B2F078C0B3F0A7
:1009F0000001B5BF04EF05F0B55108E1B405D8A07A
:100A000004EF05F006EF05F036EF05F0AC51AD113F
:100A1000AE11AF11B011B111B211B311D8A413EFCF
:100A200005F015EF05F07BEF04F0A7BF22EF05F00E
:100A3000A75106E1A605D8B020EF05F022EF05F09A
:100A40007BEF04F0A9BF2DEF05F0A95108E1A8053F
:100A5000D8A02DEF05F02FEF05F036EF05F0CAB363
:100A600034EF05F036EF05F07BEF04F0AA51AB113F
:100A7000D8A43DEF05F03FEF05F046EF05F0CAA51D
:100A800044EF05F046EF05F064EF05F0B407D8A099
:100A9000B507AA51AB11D8A450EF05F052EF05F0FD
:100AA00058EF05F0000EA56F2B0EA46F5CEF05F05C
:100AB000000EA56F2D0EA46FCE0EB425D96E000EBC
:100AC000B521DA6EA4C0DFFF92C087F093C088F032
:100AD000CE0EB425896F000EB5218A6FA8C08BF0A9
:100AE000A9C08CF01EEC0CF087C092F088C093F087
:100AF000120024C03CF025C03DF026C03EF027C0C7
:100B00003FF028C040F029C041F02AC042F02BC07D
:100B100043F043BE8EEF05F091EF05F0010E92EF2A
:100B200005F0000E3A6E3B6A3A503B10D8B49BEF8A
:100B300005F09DEF05F0ADEF05F0431E421E411E8E
:100B4000401E3F1E3E1E3D1E3C6C000E3D223E22BE
:100B50003F2240224122422243220001C9BFB3EF7B
:100B600005F0B5EF05F0B6EF05F0CA93C9BFC3EFC6
:100B700005F0C95106E1C805D8B0C1EF05F0C3EFD3
:100B800005F0C9EF05F0000E376E010E366ECDEFA1
:100B900005F0C8C036F0C9C037F0C6C038F0C7C0CD
:100BA00039F03A503B10D8A4D8EF05F0DAEF05F051
:100BB000E1EF05F0CAA5DFEF05F0E1EF05F0E4EFA6
:100BC00005F03806D8A03906000E456E1F0E446E9B
:100BD000000EED6F68EF06F04406D8A04506CE0E75
:100BE0004424D96E000E4520DA6E3CC001F03DC0B1
:100BF00002F03EC003F03FC004F040C005F041C029
:100C000006F042C007F043C008F00A0E096E000E5D
:100C10000A6E000E0B6E000E0C6E000E0D6E000EB6
:100C20000E6E000E0F6E000E106EDDEC0AF001C0AD
:100C30002CF002C02DF003C02EF004C02FF005C030
:100C400030F006C031F007C032F008C033F02CC0DD
:100C500013F02EC014F019EC0FF01350300FDF6EAC
:100C60003606D8A037063806D8A039063CC001F0B1
:100C70003DC002F03EC003F03FC004F040C005F0AC
:100C800041C006F042C007F043C008F00A0E096EEA
:100C9000000E0A6E000E0B6E000E0C6E000E0D6E36
:100CA000000E0E6E000E0F6E000E106E66EC09F058
:100CB00001C03CF002C03DF003C03EF004C03FF074
:100CC00005C040F006C041F007C042F008C043F044
:100CD00045BE73EF06F0455008E14404D8A073EF19
:100CE00006F075EF06F0A6EF06F03C503D103E1002
:100CF0003F104010411042104310D8A482EF06F07C
:100D000084EF06F0ECEF05F037BE91EF06F03750B8
:100D100006E13604D8B08FEF06F091EF06F0ECEF65
:100D200005F039BE9CEF06F0395008E13804D8A030
:100D30009CEF06F09EEF06F0A6EF06F00001CAB3A6
:100D4000A4EF06F0A6EF06F0ECEF05F03A503B10EA
:100D5000D8A4ADEF06F0AFEF06F0B7EF06F0000154
:100D6000CAA5B5EF06F0B7EF06F0D5EF06F04406DA
:100D7000D8A045063A503B10D8A4C1EF06F0C3EF07
:100D800006F0C9EF06F0000E356E2B0E346ECDEF77
:100D900006F0000E356E2D0E346ECE0E4424D96E44
:100DA000000E4520DA6E34C0DFFF22C017F023C0EA
:100DB00018F0CE0E4424196E000E45201A6E38C06D
:100DC0001BF039C01CF083EC0CF017C022F018C0E7
:100DD00023F01200B8C0D9FFB9C0DAFFDECFF6FFAA
:100DE000DDCFF7FF0800F550250AD8A4FAEF06F08A
:100DF000FCEF06F0AAEF07F0B8C0D9FFB9C0DAFFE0
:100E0000DE2A000EDD22000E0001C76F000EC66F45
:100E1000C6C0CAF0C7C0CBF0C869C969B8C0D9FF9D
:100E2000B9C0DAFFDECFF6FFDDCFF7FF0800F550DF
:100E3000640AD8B41EEF07F020EF07F032EF07F096
:100E4000B8C0D9FFB9C0DAFFDECFF6FFDDCFF7FFBC
:100E50000800F550690AD8A430EF07F032EF07F028
:100E600073EF07F0B8C0D9FFB9C0DAFFDE2A000E71
:100E7000DD22BAC0D9FFBBC0DAFFDFCFBCF0020E63
:100E8000DE26DFCFBDF0000EDD22BCC0D9FFBDC025
:100E9000DAFFDECF00F1DDCF01F10101000E01BF6D
:100EA000FF0E026F036F046F056F066F076FB6C00A
:100EB00092F0B7C093F000C194F001C195F002C167
:100EC00096F003C197F004C198F005C199F006C1EE
:100ED0009AF007C19BF008EC04F092C0B6F093C002
:100EE000B7F0C6EF07F0B8C0D9FFB9C0DAFFDECF60
:100EF000F6FFDDCFF7FF0800F550250AD8A483EFF1
:100F000007F085EF07F09DEF07F0B8C0D9FFB9C033
:100F1000DAFFDE2A000EDD22000E786F250E776FD5
:100F2000B6C079F0B7C07AF0E6EC0CF0000E000124
:100F3000B76F010EB66FC6EF07F0B8C0D9FFB9C0E2
:100F4000DAFFDE2A000EDD22000EB76F000EB66F4C
:100F5000C6EF07F0B8C0D9FFB9C0DAFFDECFF6FFA1
:100F6000DDCFF7FF0800F5500001776F786BB6C052
:100F700079F0B7C07AF0E6EC0CF0B8C0D9FFB9C090
:100F8000DAFFDE2A000EDD2296EF07F0120048C0DD
:100F9000D9FF49C0DAFFDECFF6FFDDCFF7FF08004B
:100FA000F550250AD8A4D7EF07F0D9EF07F085EF61
:100FB00008F048C0D9FF49C0DAFFDE2A000EDD2262
:100FC000000E0001C76F000EC66FC6C0CAF0C7C0D2
:100FD000CBF0C869C96948C0D9FF49C0DAFFDECF84
:100FE000F6FFDDCFF7FF0800F550640AD8B4FBEF39
:100FF00007F0FDEF07F00FEF08F048C0D9FF49C038
:10100000DAFFDECFF6FFDDCFF7FF0800F550690A03
:10101000D8A40DEF08F00FEF08F04FEF08F048C02C
:10102000D9FF49C0DAFFDE2A000EDD224AC0D9FF0F
:101030004BC0DAFFDFCF4CF0020EDE26DFCF4DF0E3
:10104000000EDD224CC0D9FF4DC0DAFFDECF4EF0DE
:10105000DDCF4FF0000E4FBEFF0E506E516E526E40
:10106000536E546E556E46C022F047C023F04EC0FA
:1010700024F04FC025F050C026F051C027F052C0D8
:1010800028F053C029F054C02AF055C02BF079EC59
:1010900005F022C046F023C047F0A0EF08F048C09A
:1010A000D9FF49C0DAFFDECFF6FFDDCFF7FF08003A
:1010B000F550250AD8A45FEF08F061EF08F078EF4B
:1010C00008F048C0D9FF49C0DAFFDE2A000EDD2251
:1010D000000E086E250E076E46C009F047C00AF0E4
:1010E00032EC0DF0000E476E010E466EA0EF08F0D8
:1010F00048C0D9FF49C0DAFFDE2A000EDD22000E0B
:10110000476E000E466EA0EF08F048C0D9FF49C0F8
:10111000DAFFDECFF6FFDDCFF7FF0800F550076EF0
:10112000086A46C009F047C00AF032EC0DF048C02A
:10113000D9FF49C0DAFFDE2A000EDD2272EF08F087
:101140001200000E0001826F80BFABEF08F0A9EF24
:1011500008F0BDEF08F0801F7F1F7E1F7D1F7C1FE2
:101160007B1F7A1F796D000E7A237B237C237D23DE
:101170007E237F238023010E826F78BFC4EF08F0A7
:10118000C2EF08F0D6EF08F0781F771F761F751FA3
:10119000741F731F721F716D000E722373237423EB
:1011A0007523762377237823010E821B20EE83F0AC
:1011B000070EDE6AE806FDE279517A117B117C1197
:1011C0007D117E117F118011D8B4E9EF08F0EBEFAB
:1011D00008F03DEF09F0010E816FF9EF08F0D890AB
:1011E00079377A377B377C377D377E377F37803763
:1011F000812B80AFFEEF08F000EF09F0EFEF08F071
:10120000D89083378437853786378737883789374B
:101210008A377951715D7A5172597B5173597C517A
:1012200074597D5175597E5176597F517759805146
:101230007859D8A01EEF09F020EF09F031EF09F03E
:101240007951715F7A51725B7B51735B7C51745B36
:101250007D51755B7E51765B7F51775B8051785B0A
:101260008381D89080337F337E337D337C337B33EF
:101270007A337933812F00EF09F08251D8B443EFEC
:1012800009F045EF09F055EF09F08A1F891F881F03
:10129000871F861F851F841F836D000E842385236F
:1012A00086238723882389238A2383C071F084C0FF
:1012B00072F085C073F086C074F087C075F088C086
:1012C00076F089C077F08AC078F01200000E126EB6
:1012D00010BE6FEF09F06DEF09F081EF09F0101EFD
:1012E0000F1E0E1E0D1E0C1E0B1E0A1E096C000E7C
:1012F0000A220B220C220D220E220F221022010E96
:10130000126E08BE88EF09F086EF09F09AEF09F037
:10131000081E071E061E051E041E031E021E016C6B
:10132000000E02220322042205220622072208229E
:10133000010E121A20EE13F0070EDE6AE806FDE237
:1013400009500A100B100C100D100E100F10101079
:10135000D8B4ADEF09F0AFEF09F001EF0AF0010EDC
:10136000116EBDEF09F0D89009360A360B360C36EF
:101370000D360E360F361036112A10AEC2EF09F0B8
:10138000C4EF09F0B3EF09F0D890133614361536D0
:1013900016361736183619361A360950015C0A50B7
:1013A00002580B5003580C5004580D5005580E505D
:1013B00006580F50075810500858D8A0E2EF09F00F
:1013C000E4EF09F0F5EF09F00950015E0A50025A06
:1013D0000B50035A0C50045A0D50055A0E50065A21
:1013E0000F50075A1050085A1380D89010320F32FD
:1013F0000E320D320C320B320A320932112EC4EF8A
:1014000009F01250D8B407EF0AF009EF0AF019EF0B
:101410000AF01A1E191E181E171E161E151E141E5F
:10142000136C000E142215221622172218221922DC
:101430001A2213C001F014C002F015C003F016C048
:1014400004F017C005F018C006F019C007F01AC064
:1014500008F01200000E0001826F78BF34EF0AF02E
:1014600032EF0AF046EF0AF0781F771F761F751FDC
:10147000741F731F721F716D000E72237323742308
:101480007523762377237823010E826F80BF4DEF7B
:101490000AF04BEF0AF05DEF0AF0801F7F1F7E1FFE
:1014A0007D1F7C1F7B1F7A1F796D000E7A237B23A3
:1014B0007C237D237E237F23802379517A117B1126
:1014C0007C117D117E117F118011D8B46AEF0AF072
:1014D0006CEF0AF0B4EF0AF0010E816F7AEF0AF0B8
:1014E000D89079377A377B377C377D377E377F37AF
:1014F0008037812B80AF7FEF0AF081EF0AF070EF29
:101500000AF07951715D7A5172597B5173597C514E
:1015100074597D5175597E5176597F517759805153
:101520007859D8A096EF0AF098EF0AF0A8EF0AF0E1
:101530007951715F7A51725B7B51735B7C51745B43
:101540007D51755B7E51765B7F51775B8051785B17
:10155000D89080337F337E337D337C337B337A3353
:101560007933812F81EF0AF08251D8B4BAEF0AF0B3
:10157000BCEF0AF0CCEF0AF0781F771F761F751FBB
:10158000741F731F721F716D000E722373237423F7
:10159000752376237723782371C071F072C072F0BF
:1015A00073C073F074C074F075C075F076C076F0D7
:1015B00077C077F078C078F01200000E126E08BE87
:1015C000E6EF0AF0E4EF0AF0F8EF0AF0081E071E53
:1015D000061E051E041E031E021E016C000E0222C2
:1015E000032204220522062207220822010E126E7F
:1015F00010BEFFEF0AF0FDEF0AF00FEF0BF0101E28
:101600000F1E0E1E0D1E0C1E0B1E0A1E096C000E58
:101610000A220B220C220D220E220F221022095028
:101620000A100B100C100D100E100F101010D8B463
:101630001CEF0BF01EEF0BF066EF0BF0010E116EBE
:101640002CEF0BF0D89009360A360B360C360D36D7
:101650000E360F361036112A10AE31EF0BF033EF85
:101660000BF022EF0BF00950015C0A5002580B50AE
:1016700003580C5004580D5005580E5006580F5082
:10168000075810500858D8A048EF0BF04AEF0BF05D
:101690005AEF0BF00950015E0A50025A0B50035AE0
:1016A0000C50045A0D50055A0E50065A0F50075A46
:1016B0001050085AD89010320F320E320D320C32C0
:1016C0000B320A320932112E33EF0BF01250D8B41C
:1016D0006CEF0BF06EEF0BF07EEF0BF0081E071EA9
:1016E000061E051E041E031E021E016C000E0222B1
:1016F00003220422052206220722082201C001F04B
:1017000002C002F003C003F004C004F005C005F0FD
:1017100006C006F007C007F008C008F01200060077
:10172000E1CF69F0E2CF6AF0D9CF6BF0DACF6CF09D
:10173000F6CF6DF0F7CF6EF0F8CF6FF0F5CF70F019
:10174000F2A2A5EF0BF0A7EF0BF0C9EF0BF020EC26
:1017500010F0010E0001606F080E616FCCC062F0E6
:10176000CDC063F071EC0FF082B0B9EF0BF0BCEFBD
:101770000BF0010EBDEF0BF0000EFF0A0001686FC9
:1017800082506819FE0B6819826E54EC10F00CEF51
:101790000CF0F0A0CEEF0BF0D0EF0BF0E4EF0BF07D
:1017A00082B2D5EF0BF0D8EF0BF0010ED9EF0BF0B2
:1017B000000EFF0A0001686F684782506819FD0B30
:1017C0006819826EC5EF0BF0F0A2E9EF0BF0EBEFBA
:1017D0000BF000EF0CF082B4F0EF0BF0F3EF0BF036
:1017E000010EF4EF0BF0000EFF0A0001686F68476E
:1017F000684782506819FB0B6819826E54EC10F030
:101800009EA205EF0CF007EF0CF00CEF0CF00001BE
:10181000CC4BCD2BC5EF0BF070C0F5FF6FC0F8FFC0
:101820006EC0F7FF6DC0F6FF6CC0DAFF6BC0D9FF6A
:101830006AC0E2FF69C0E1FF5E9211000001CAA127
:1018400024EF0CF026EF0CF030EF0CF089C080F0A4
:101850008AC081F087C082F088C083F0B2EC0EF0BD
:1018600000018CBF36EF0CF038EF0CF03EEF0CF0BF
:101870008BC090F08CC091F042EF0CF0000E916F95
:10188000000E906F000E8F6F000E8E6F55EF0CF0F4
:10189000000E786F200E776F87C079F088C07AF0DD
:1018A000E6EC0CF000018E4B8F2B90518E5D8F512A
:1018B000800A8D6F9151800A8D59D8A062EF0CF08B
:1018C00064EF0CF048EF0CF0CAB169EF0CF06BEF6D
:1018D0000CF075EF0CF089C080F08AC081F087C0F1
:1018E00082F088C083F0B2EC0EF089C071F08AC03B
:1018F00072F039EC0FF0000190517125876F915112
:101900007221886F12000001CAA189EF0CF08BEFE1
:101910000CF095EF0CF019C010F01AC011F017C0C0
:1019200012F018C013F0D6EC0EF01CBE9AEF0CF0BB
:101930009CEF0CF0A2EF0CF01BC020F01CC021F0BB
:10194000A6EF0CF0000E216E000E206E000E1F6E32
:10195000000E1E6EB8EF0CF0000E086E200E076E23
:1019600017C009F018C00AF032EC0DF01E4A1F2A09
:1019700020501E5C1F50800A1D6E2150800A1D5889
:10198000D8A0C5EF0CF0C7EF0CF0ACEF0CF00001E5
:10199000CAB1CDEF0CF0CFEF0CF0D9EF0CF019C0BD
:1019A00010F01AC011F017C012F018C013F0D6ECE6
:1019B0000EF019C001F01AC002F056EC0FF02050E2
:1019C0000124176E21500220186E12000001795177
:1019D0007A11D8B4EEEF0CF0F0EF0CF0F9EF0CF058
:1019E00079517A11D8A4F7EF0CF0F9EF0CF0FEEF73
:1019F0000CF0775141EC10F031EF0DF020EE04F0D7
:101A00007951D9267A51DA22DE50DE10D8B40BEFA4
:101A10000DF00DEF0DF028EF0DF020EE04F07951F0
:101A2000D9267A51DA2210EE02F07951E1267A5164
:101A3000E222DE50E65CE650800A7F6FDE50800ACC
:101A40007F59D8B026EF0DF028EF0DF031EF0DF0F3
:101A500020EE02F07951D9267A51DA22DE2A000EE0
:101A6000DD22120009500A10D8B439EF0DF03BEF17
:101A70000DF044EF0DF009500A10D8A442EF0DF01C
:101A800044EF0DF049EF0DF007504FEC10F07CEFF4
:101A90000DF020EE04F00950D9260A50DA22DE506B
:101AA000DE10D8B456EF0DF058EF0DF073EF0DF0D7
:101AB00020EE04F00950D9260A50DA2210EE02F086
:101AC0000950E1260A50E222DE50E65CE650800A28
:101AD0000F6EDE50800A0F58D8B071EF0DF073EF23
:101AE0000DF07CEF0DF020EE02F00950D9260A50DF
:101AF000DA22DE2A000EDD22120083928398839A76
:101B0000839C839E410E0001756FEE0EE82EFED77A
:101B1000752FFCD700F0030EC6EC0DF0060E000189
:101B2000756F300EE82EFED7752FFCD700F0030E30
:101B3000C6EC0DF0210EE82EFED700F0030EC6EC29
:101B40000DF0020EC6EC0DF0010E0001736F000ED9
:101B500089EC0FF0030E0001756F970EE82EFED78B
:101B6000752FFCD700D0280E0001736F000E89EC92
:101B70000FF00C0E0001736F000E89EC0FF0060ED3
:101B80000001736F000E89EC0FF012000001726FFC
:101B9000838272C071F0010E00017117713B835096
:101BA0007119EF0B7119836E72C071F0D890713397
:101BB000010E7117713B714783507119DF0B711959
:101BC000836E72C071F0D8907133D8907133010E6A
:101BD0007117713B7147714783507119BF0B7119B0
:101BE000836E72C071F0D8907133D8907133D890F1
:101BF0007133010E711771337133835071197F0B7B
:101C00007119836E100EE82EFED700D08392100E4D
:101C1000E82EFED700D01200026E838202C001F0CF
:101C2000010E0116013A83500118EF0B0118836E63
:101C300002C001F0D8900132010E0116013A0146AE
:101C400083500118DF0B0118836E02C001F0D89099
:101C50000132D8900132010E0116013A01460146C7
:101C600083500118BF0B0118836E02C001F0D89099
:101C70000132D8900132D8900132010E01160132A2
:101C80000132835001187F0B0118836E100EE82E6D
:101C9000FED700D08392100EE82EFED700D012009F
:101CA000C0C008F1C1C009F1000E0001C56F000EEF
:101CB000C46F6EEF0EF0BEC0B6F0BFC0B7F0080E36
:101CC000B86F010EB96FC2C0BAF0C3C0BBF0EAEC86
:101CD00006F00001B651C427B751C52308C1F6FF6D
:101CE00009C1F7FF0800F5500009D8A47AEF0EF0FB
:101CF0007CEF0EF05BEF0EF0C4C0BEF0C5C0BFF0CD
:101D0000120058C05CF059C05DF0000E0001C56FB4
:101D1000000EC46F9FEF0EF056C046F057C047F05C
:101D20005C0E486E000E496E5AC04AF05BC04BF024
:101D3000C7EC07F046500001C4274750C5235CC0DC
:101D4000F6FF5DC0F7FF0800F5500009D8A4ABEF1F
:101D50000EF0ADEF0EF08CEF0EF0C4C056F0C5C023
:101D600057F01200000E0001866F000E856FC5EF60
:101D70000EF084C077F0786B82C079F083C07AF07F
:101D8000E6EC0CF00001854B862B85518025D96E41
:101D900086518121DA6EDF50846F8451D8A4D3EF4D
:101DA0000EF0D5EF0EF0B9EF0EF01200000E166E29
:101DB000000E156EE7EF0EF014C007F0086A12C0AF
:101DC00009F013C00AF032EC0DF0154A162A15502E
:101DD0001024D96E16501120DA6EDF50146E145094
:101DE000D8A4F5EF0EF0F7EF0EF0DCEF0EF01200D6
:101DF000000184BF06EF0FF0845106E18305D8B0DF
:101E000004EF0FF006EF0FF014EF0FF083C085F032
:101E100084C086F0851F861F854B862B85C083F086
:101E200086C084F018EF0FF083C083F084C084F084
:101E3000120014BE26EF0FF0145006E11304D8B0C0
:101E400024EF0FF026EF0FF034EF0FF013C015F072
:101E500014C016F0151E161E154A162A15C013F0CA
:101E600016C014F038EF0FF013C013F014C014F0C4
:101E7000120071C073F072C074F042EF0FF00001F5
:101E8000714B722B71C0D9FF72C0DAFFDF50D8A43A
:101E90004CEF0FF04EEF0FF03FEF0FF000017351DA
:101EA000715D716F74517259726F120001C003F04D
:101EB00002C004F05EEF0FF0014A022A01C0D9FF10
:101EC00002C0DAFFDF50D8A468EF0FF06AEF0FF01E
:101ED0005CEF0FF00350015C016E04500258026E7B
:101EE0001200620E0001666F000E676F000E566EE4
:101EF000000E576E60C058F061C059F0660E5A6E01
:101F0000000E5B6E81EC0EF056C064F057C065F0B9
:101F100012000001746F000174B102D0839001D0EF
:101F2000838000D000D000F0000173390F0BC6ECA5
:101F30000DF0000173510F0BC6EC0DF012000C0EEA
:101F400001010E6F010E0F6F000E0001BE6F000E3B
:101F5000BF6F0AC1C0F00BC1C1F00E0EC26F010EFF
:101F6000C36F50EC0EF01200046E04B002D08390E8
:101F700001D0838000D000D000F003380F0B0CECB0
:101F80000EF003500F0B0CEC0EF012009490949294
:101F90009494938093829384938093829384959076
:101FA00095929598959A959C959E949E12009D9CCD
:101FB000F28CF28E000EF16E000EF06EF292F2884C
:101FC000F090F086F092F088F090F092F28E12008D
:101FD000010E0001736F000E89EC0FF0030E00017B
:101FE000756F970EE82EFED7752FFCD700D0120024
:101FF000829082928294C6EC0FF0D7EC0FF07DECC9
:102000000DF0E8EC0FF02DEC10F0120000EEC4F033
:102010002A0EEE6AE806FDE15E905E92000EF86E12
:10202000000113EF10F0F8EC0FF00C0E01010A6F35
:10203000080E0B6F9FEC0FF01CEF10F007EF00F095
:10204000010E036E000EB4EC0FF0030E056E980E39
:10205000E82EFED7052EFCD71200CA92CA80FA0ECF
:10206000CB6ECA8CCA9ACA98CA869D829E92CA842E
:1020700012000001756F75C073F0010E89EC0FF04E
:1020800012000001766F0001765139EC10F0120059
:10209000056E05C003F0010EB4EC0FF01200066EE1
:1020A000065048EC10F012009E92F292F090F092DE
:0220B00012001C
:020000040020DA
:08000000FFFFFFFFFFFFFFFF00
:020000040030CA
:0E00000000001F1EFF8181FF0FC00FE00F40A8
:00000001FF
