:020000040000FA
:0400000007EF00F016
:0A0008004D827DED04F010EF06F0CC
:100800000048656C6C6F2C20576F726C642100007F
:100810003BC0D9FF3CC0DAFFDECFF6FFDDCFF7FFEC
:100820000800F550250AD8A418EF04F01AEF04F0D8
:1008300061EF04F03BC0D9FF3CC0DAFFDE2A000EB6
:10084000DD22000E246E000E236E23C027F024C08C
:1008500028F0256826683BC0D9FF3CC0DAFFDECF10
:10086000F6FFDDCFF7FF0800F550250AD8A43BEFCF
:1008700004F03DEF04F054EF04F03BC0D9FF3CC05E
:10088000DAFFDE2A000EDD22000E316E250E306EFC
:1008900039C032F03AC033F0CBEC04F0000E3A6EBF
:1008A000010E396E7CEF04F03BC0D9FF3CC0DAFF8B
:1008B000DE2A000EDD22000E3A6E000E396E7CEF4D
:1008C00004F03BC0D9FF3CC0DAFFDECFF6FFDDCF3E
:1008D000F7FF0800F550306E316A39C032F03AC087
:1008E00033F0CBEC04F03BC0D9FF3CC0DAFFDE2A8A
:1008F000000EDD224EEF04F012000600F2A283EF9C
:1009000004F085EF04F095EF04F082B08AEF04F074
:100910008DEF04F0010E8EEF04F0000EFF0A296E39
:1009200082502918FE0B2918826EF0A09AEF04F06D
:100930009CEF04F0ADEF04F082B2A1EF04F0A4EF5D
:1009400004F0010EA5EF04F0000EFF0A296E2946FF
:1009500082502918FD0B2918826EF0A2B2EF04F024
:10096000B4EF04F0C6EF04F082B4B9EF04F0BCEFCA
:1009700004F0010EBDEF04F0000EFF0A296E2946B7
:10098000294682502918FB0B2918826EF292F090AA
:10099000F0924D92110032503310D8B4D2EF04F0DF
:1009A000D4EF04F0DDEF04F032503310D8A4DBEFC5
:1009B00004F0DDEF04F0E2EF04F030504BEC06F011
:1009C00015EF05F020EE04F03250D9263350DA222C
:1009D000DE50DE10D8B4EFEF04F0F1EF04F00CEFCE
:1009E00005F020EE04F03250D9263350DA2210EE12
:1009F00002F03250E1263350E222DE50E65CE6504F
:100A0000800A386EDE50800A3858D8B00AEF05F0F8
:100A10000CEF05F015EF05F020EE02F03250D9266C
:100A20003350DA22DE2A000EDD2212002B6E838282
:100A30002BC02AF0010E2A162A3A83502A18EF0BEF
:100A40002A18836E2BC02AF0D8902A32010E2A165B
:100A50002A3A2A4683502A18DF0B2A18836E2BC0A5
:100A60002AF0D8902A32D8902A32010E2A162A3A31
:100A70002A462A4683502A18BF0B2A18836E2BC099
:100A80002AF0D8902A32D8902A32D8902A32010EF1
:100A90002A162A322A3283502A187F0B2A18836E8C
:100AA000100EE82EFED700D08392100EE82EFED74F
:100AB00000D0120083928398839A839C839E410E78
:100AC0002E6EEE0EE82EFED72E2EFCD700D0030E93
:100AD00016EC05F0060E2E6E300EE82EFED72E2EEA
:100AE000FCD700D0030E16EC05F0210EE82EFED741
:100AF00000F0030E16EC05F0020E16EC05F0010EE8
:100B00002C6E000EDDEC05F0030E2E6E980EE82E16
:100B1000FED72E2EFCD7280E2C6E000EDDEC05F035
:100B20000C0E2C6E000EDDEC05F0060E2C6E000E89
:100B3000DDEC05F0120041C045F042C046F0000E69
:100B4000226E000E216EB7EF05F03FC039F040C0B5
:100B50003AF0450E3B6E000E3C6E43C03DF044C083
:100B60003EF008EC04F0395021263A50222245C0CC
:100B7000F6FF46C0F7FF0800F5500009D8A4C3EF00
:100B800005F0C5EF05F0A5EF05F021C03FF022C04C
:100B900040F01200490E4B6E000E4C6E000E3F6E80
:100BA000000E406E47C041F048C042F04B0E436E0D
:100BB000000E446E9BEC05F012002D6E2DB002D09D
:100BC000839001D0838000D000D000F02C380F0B30
:100BD00016EC05F02C500F0B16EC05F012009D9C46
:100BE000F28CF28E000EF16E000EF06EF292F28830
:100BF000F090F086F092F088F090F092F28E120071
:100C0000949094929494938093829384938093820B
:100C10009384959095929598959A959C959E12009F
:100C200000EE01F0280EEE6AE806FDE14D904D92CF
:100C3000000EF86E080EF76E00012CEF06F0010EA4
:100C40002C6E000EDDEC05F0030E2E6E980EE82ED5
:100C5000FED72E2EFCD7120038EC06F0010E476EA0
:100C6000080E486ECAEC05F034EF06F007EF00F00E
:100C700082908292829400EC06F0EFEC05F05AEC40
:100C800005F01FEC06F012002E6E2EC02CF0010EA7
:100C9000DDEC05F012002F6E2F5044EC06F0120030
:020000040020DA
:08000000FFFFFFFFFFFFFFFF00
:020000040030CA
:0E00000000001F1EFF8181FF0FC00FE00F40A8
:00000001FF
