:020000040000FA
:0400000007EF00F016
:0A0008005E8247ED21F054EF32F064
:100800000050313A20252E326620730050323A20B3
:10081000252E326620730049444C452E2E2E005062
:10082000313A202D20730050323A202D2073004998
:100830004E46004E414E00696E66006E616E006C61
:030840006600004F
:10084400000E00017B6F000E7A6F3EC08CF03FC03B
:100854008DF040C08EF041C08FF08FBF36EF04F0B2
:1008640034EF04F04CEF04F0000E7B6F010E7A6F4E
:100874008CC001F08DC002F08EC003F08FC004F074
:1008840003EC33F001C08CF002C08DF003C08EF095
:1008940004C08FF0000E0001936F000E926FA1C18F
:1008A4007FF0A2C180F07A517B11D8A45CEF04F0F0
:1008B4005EEF04F066EF04F00101A5A564EF04F017
:1008C40066EF04F081EF04F000017A517B11D8A4A3
:1008D4006EEF04F070EF04F076EF04F0000E656F35
:1008E4002B0E646F7AEF04F0000E656F2D0E646FAB
:1008F40064C0A9F1924B932B7F07D8A080078CC0CA
:1009040001F08DC002F08EC003F08FC004F011EC32
:100914002AF001040210D8A492EF04F094EF04F03A
:10092400EBEF04F0BF0E436EFF0E446E4250456E73
:10093400466A435045264450462246500AE11A0E60
:10094400455CD8A0A8EF04F0ABEF04F0010EACEFC7
:1009540004F0000E0001666F676B66516711D8B42E
:10096400B6EF04F0B8EF04F0C6EF04F0A90E922538
:10097400016E010E9321026E2F0E036E080E046E9B
:1009840025EC31F0D2EF04F0A90E9225016E010E90
:100994009321026E370E036E080E046E25EC31F0BF
:1009A4000001FD0E7F27FF0E80233CC017F03DC0E1
:1009B40018F0A90E196E010E1A6E7FC01BF080C0CC
:1009C4001CF02FEC2CF017C03CF018C03DF02BEFBE
:1009D4000AF08CC001F08DC002F08EC003F08FC00D
:1009E40004F011EC2AF001500210D8A4FCEF04F03A
:1009F400FEEF04F055EF05F0BF0E436EFF0E446E9C
:100A04004250456E466A435045264450462246505D
:100A14000AE11A0E455CD8A012EF05F015EF05F0B7
:100A2400010E16EF05F0000E0001686F696B685146
:100A34006911D8B420EF05F022EF05F030EF05F08E
:100A4400A90E9225016E010E9321026E330E036EE0
:100A5400080E046E25EC31F03CEF05F0A90E92254A
:100A6400016E010E9321026E3B0E036E080E046E9E
:100A740025EC31F00001FD0E7F27FF0E80233CC0E2
:100A840017F03DC018F0A90E196E010E1A6E7FC042
:100A94001BF080C01CF02FEC2CF017C03CF018C0E9
:100AA4003DF02BEF0AF0000E0001946F000E956FDD
:100AB400800E966F3F0E976F000E916F000E906F31
:100AC4008CC001F08DC002F08EC003F08FC004F022
:100AD400000E056E000E066E000E076E000E086E08
:100AE400FBEC2DF0D8B079EF05F07BEF05F0FEEFCD
:100AF40005F09AEF05F094C001F095C002F096C09D
:100B040003F097C004F0000E056E000E066E200E72
:100B1400076E410E086E97EC1BF001C094F002C002
:100B240095F003C096F004C097F00001904B912B10
:100B34008CC01AF08DC01BF08EC01CF08FC01DF04D
:100B4400000E056E000E066E200E076E410E086E36
:100B540094C001F095C002F096C003F097C004F071
:100B640097EC1BF001C01EF002C01FF003C020F080
:100B740004C021F00FEC29F0D8B0C3EF05F0C5EFA5
:100B840005F07DEF05F0E5EF05F094C00FF095C09A
:100B940010F096C011F097C012F0000E136E000E04
:100BA400146E200E156E410E166E7AEC1FF00FC0F7
:100BB40094F010C095F011C096F012C097F00001A7
:100BC4009007D8A091078CC01AF08DC01BF08EC07E
:100BD4001CF08FC01DF094C01EF095C01FF096C08D
:100BE40020F097C021F00FEC29F0D8A0FCEF05F01D
:100BF400FEEF05F0C7EF05F042C007F0086AC6EC47
:100C040030F007500001816F81C07EF0670E8119BA
:100C1400D8A40FEF06F011EF06F039EF06F001014A
:100C2400A351A411D8A419EF06F01BEF06F01FEF8F
:100C340006F0000EA46F010EA36FA4BF2CEF06F004
:100C4400A45106E1A305D8B02AEF06F02CEF06F074
:100C540033EF06F0000E00017D6F060E7C6F43EF4C
:100C640006F0A3C17CF0A4C17DF043EF06F00101BE
:100C7400A4BF3FEF06F041EF06F02CEF06F033EF90
:100C840006F0670E00018119D8A44BEF06F04DEF72
:100C940006F07CEF06F091AF5BEF06F0FC0E905D82
:100CA400FF0E9159D8A059EF06F05BEF06F07AEFEA
:100CB40006F0FF0E436EFF0E446E7CC045F07DC00F
:100CC40046F043504526445046229051455C4650D8
:100CD400800A476E9151800A4758D8A074EF06F0F5
:100CE40076EF06F07AEF06F0660E7E6F7CEF06F084
:100CF400650E7E6F7CC074F07DC075F0670E81193F
:100D0400D8A487EF06F089EF06F099EF06F0660E97
:100D14007E19D8A490EF06F092EF06F09BEF06F050
:100D240091BF99EF06F097EF06F09BEF06F0744B36
:100D3400752B660E7E19D8A4A2EF06F0A4EF06F078
:100D4400C4EF06F091BFABEF06F0A9EF06F0B7EFE2
:100D540006F0000E946F000E956F800E966F3F0E96
:100D6400976F000E916F000E906F670E8119D8B4C3
:100D7400BEEF06F0C0EF06F0C4EF06F09051742702
:100D840091517523000E8B6F000E8A6F8CC082F018
:100D94008DC083F08EC084F08FC085F094C060F065
:100DA40095C061F096C062F097C063F055EF07F00C
:100DB40082C00FF083C010F084C011F085C012F01F
:100DC40094C013F095C014F096C015F097C016F0B7
:100DD4007AEC1FF00FC028F010C029F011C02AF0DF
:100DE40012C02BF068EC23F028C086F029C087F0ED
:100DF4002AC088F02BC089F086C001F087C002F0B9
:100E040088C003F089C004F08CEC28F001C078F0AD
:100E140002C079F082C01AF083C01BF084C01CF0B9
:100E240085C01DF094C005F095C006F096C007F08B
:100E340097C008F086C001F087C002F088C003F0B4
:100E440089C004F097EC1BF001C01EF002C01FF033
:100E540003C020F004C021F0EEEC31F01AC082F09F
:100E64001BC083F01CC084F01DC085F094C00FF03B
:100E740095C010F096C011F097C012F0000E136EDA
:100E8400000E146E200E156E410E166E7AEC1FF0D5
:100E94000FC094F010C095F011C096F012C097F0F6
:100EA40000018A4B8B2B74518A5D8B51800A436EEF
:100EB4007551800A4358D8A062EF07F064EF07F039
:100EC400DAEF06F094C001F095C002F096C003F08A
:100ED40097C004F0000E056E000E066EA00E076E9D
:100EE400400E086E97EC1BF001C086F002C087F03C
:100EF40003C088F004C089F082C01AF083C01BF0DC
:100F040084C01CF085C01DF086C01EF087C01FF091
:100F140088C020F089C021F00FEC29F0D8B095EFFB
:100F240007F097EF07F0A2EF07F0000E0001866FBD
:100F3400000E876F000E886F000E896FCBEF07F0ED
:100F440082C001F083C002F084C003F085C004F0C5
:100F540086C005F087C006F088C007F089C008F095
:100F6400FBEC2DF0D8A0B9EF07F0BBEF07F0CBEF07
:100F740007F0000178B1C1EF07F0C3EF07F0CBEF42
:100F840007F0000E866F000E876F000E886F000E4C
:100F9400896F8CC001F08DC002F08EC003F08FC049
:100FA40004F086C005F087C006F088C007F089C049
:100FB40008F092EC12F001C082F002C083F003C08A
:100FC40084F004C085F060C094F061C095F062C004
:100FD40096F063C097F0650E00017E19D8B4F5EF62
:100FE40007F0F7EF07F0FDEF07F090C076F091C03F
:100FF40077F001EF08F0000E776F000E766F000EA9
:10100400736F000E726F000E716F000E706F000E22
:101014008B6F000E8A6FFEEF08F082C00FF083C062
:1010240010F084C011F085C012F094C013F095C084
:1010340014F096C015F097C016F07AEC1FF00FC0AC
:1010440028F010C029F011C02AF012C02BF068EC6F
:1010540023F028C086F029C087F02AC088F02BC06E
:1010640089F086C001F087C002F088C003F089C00F
:1010740004F08CEC28F001C078F002C079F0010192
:10108400A5B947EF08F049EF08F067EF08F0000151
:1010940078517911D8A451EF08F053EF08F067EFB5
:1010A40008F0670E8119D8A45AEF08F05CEF08F035
:1010B40067EF08F077BF63EF08F061EF08F067EFC0
:1010C40008F0704B712BB2EF08F0000172517311EC
:1010D400D8A46FEF08F071EF08F09BEF08F077BF2A
:1010E40078EF08F076EF08F09BEF08F0A90E922550
:1010F400D96E010E9321DA6E2E0EDF6E924B932B76
:101104007F07D8A08007000E736F010E726F9BEFEC
:1011140008F0A90E9225D96E010E9321DA6E300ED5
:10112400DF6E924B932B7F07D8A080077007D8A05F
:10113400710770517111D8A4A2EF08F0A4EF08F060
:101144008BEF08F0A90E9225D96E010E9321DA6E69
:101154007851300FDF6E924B932B7F07D8A0800716
:1011640082C01AF083C01BF084C01CF085C01DF03F
:1011740094C005F095C006F096C007F097C008F03B
:1011840086C001F087C002F088C003F089C004F073
:1011940097EC1BF001C01EF002C01FF003C020F04A
:1011A40004C021F0EEEC31F01AC082F01BC083F0D1
:1011B4001CC084F01DC085F094C00FF095C010F0E1
:1011C40096C011F097C012F0000E136E000E146E4C
:1011D400200E156E410E166E7AEC1FF00FC094F0BF
:1011E40010C095F011C096F012C097F00001760778
:1011F400D8A077078A4B8B2B74518A5D8B51800A58
:10120400436E7551800A4358D8B00BEF09F00DEFC7
:1012140009F01BEF09F093BF19EF09F0935109E1AD
:101224004B0E925DD8A019EF09F01BEF09F00FEFF8
:1012340008F072517311D8A422EF09F024EF09F0D9
:1012440037EF09F00101A5A92AEF09F02CEF09F005
:1012540037EF09F0A90E00019225D96E010E9321F2
:10126400DA6E2E0EDF6E924B932BA90E000192259F
:10127400D96E010E9321DA6E000EDF6E650E7E19B3
:10128400D8A447EF09F049EF09F019EF0AF0000E6E
:101294008B6F4F0E8A6FA90E8A25D96E010E8B2192
:1012A400DA6E000EDF6E000E7B6F000E7A6F91BF58
:1012B40060EF09F05EEF09F068EF09F0000E7B6F54
:1012C400010E7A6F906D911FD8B0912B000E7D6F37
:1012D400020E7C6F99EF09F08A07D8A08B07A90E3C
:1012E4008A25D96E010E8B21DA6E90C001F091C06F
:1012F40002F0000E046E0A0E036E4DEC2DF0015048
:10130400300FDF6E90C001F091C002F0000E046E49
:101314000A0E036E92EC2CF001C090F002C091F022
:1013240000017C07D8A07D077F07D8A080079051D3
:101334009111D8A4A0EF09F0A2EF09F06EEF09F023
:101344007DBFAFEF09F07D5106E17C05D8B0ADEF6C
:1013540009F0AFEF09F06EEF09F08A07D8A08B0708
:101364007A517B11D8A4B9EF09F0BBEF09F0C1EFB2
:1013740009F0000E6B6F2B0E6A6FC5EF09F0000EBB
:101384006B6F2D0E6A6FA90E8A25D96E010E8B2103
:10139400DA6E6AC0DFFF7F07D8A080078A07D8A06B
:1013A4008B07BF0E436EFF0E446E4250456E466A75
:1013B400435045264450462246500AE11A0E455CE5
:1013C400D8A0E7EF09F0EAEF09F0010EEBEF09F01E
:1013D400000E6E6F6F6B6E516F11D8A4F4EF09F0AD
:1013E400F6EF09F0FCEF09F0000E6D6F650E6C6FFF
:1013F40000EF0AF0000E6D6F450E6C6FA90E8A2582
:10140400D96E010E8B21DA6E6CC0DFFF7F07D8A086
:101414008007A90E9225016E010E9321026EA90E7A
:101424008A25036E010E8B21046E25EC31F03CC03D
:1014340017F03DC018F0A90E196E010E1A6E7FC088
:101444001BF080C01CF02FEC2CF017C03CF018C02F
:101454003DF01200000E0101546F000E536F2FC1B6
:1014640065F130C166F131C167F132C168F168BF1D
:1014740040EF0AF03EEF0AF056EF0AF0000E546F08
:10148400010E536F65C100F166C101F167C102F13C
:1014940068C103F1ADEC32F000C165F101C166F140
:1014A40002C167F103C168F1000E01016C6F000E07
:1014B4006B6FA1C158F1A2C159F153515411D8A471
:1014C40066EF0AF068EF0AF06FEF0AF0A5A56DEF7A
:1014D4000AF06FEF0AF089EF0AF053515411D8A4BF
:1014E40076EF0AF078EF0AF07EEF0AF0000E3E6F16
:1014F4002B0E3D6F82EF0AF0000E3E6F2D0E3D6FF6
:101504003DC1A9F16B4B6C2B5807D8A0590765C195
:1015140000F166C101F167C102F168C103F191EC08
:1015240029F0010100050111D8A49BEF0AF09DEFF9
:101534000AF0F3EF0AF0BF0E346FFF0E356F33512C
:10154400366F376B345136273551372337510AE11B
:101554001A0E365DD8A0B1EF0AF0B4EF0AF0010E0E
:10156400B5EF0AF0000E3F6F406B3F514011D8B405
:10157400BEEF0AF0C0EF0AF0CEEF0AF0A90E6B2519
:10158400006F010E6C21016F2F0E026F080E036FA6
:10159400F6EC30F0DAEF0AF0A90E6B25006F010EBD
:1015A4006C21016F370E026F080E036FF6EC30F0FA
:1015B4000101FD0E5827FF0E59232DC116F12EC12E
:1015C40017F1A90E186F010E196F58C11AF159C1FC
:1015D4001BF167EC2BF016C12DF117C12EF130EF82
:1015E40010F065C100F166C101F167C102F168C183
:1015F40003F191EC29F0010100510111D8A405EF88
:101604000BF007EF0BF05DEF0BF0BF0E346FFF0E26
:10161400356F3351366F376B345136273551372395
:1016240037510AE11A0E365DD8A01BEF0BF01EEFFE
:101634000BF0010E1FEF0BF0000E416F426B415196
:101644004211D8B428EF0BF02AEF0BF038EF0BF06F
:10165400A90E6B25006F010E6C21016F330E026F12
:10166400080E036FF6EC30F044EF0BF0A90E6B2577
:10167400006F010E6C21016F3B0E026F080E036FA9
:10168400F6EC30F00101FD0E5827FF0E59232DC151
:1016940016F12EC117F1A90E186F010E196F58C15A
:1016A4001AF159C11BF167EC2BF016C12DF117C1CA
:1016B4002EF130EF10F0000E6D6F000E6E6F800E85
:1016C4006F6F3F0E706F000E6A6F000E696F65C119
:1016D40000F166C101F167C102F168C103F1000EB6
:1016E400046F000E056F000E066F000E076FA5EC69
:1016F4002DF00101D8B081EF0BF083EF0BF008EF70
:101704000CF0A2EF0BF06DC100F16EC101F16FC1DD
:1017140002F170C103F1000E046F000E056F200E7C
:10172400066F410E076F81EC19F000C16DF101C124
:101734006EF102C16FF103C170F10101694B6A2BB3
:1017440065C119F166C11AF167C11BF168C11CF1C9
:10175400000E046F000E056F200E066F410E076F1A
:101764006DC100F16EC101F16FC102F170C103F1ED
:1017740081EC19F000C11DF101C11EF102C11FF17C
:1017840003C120F109EC28F00101D8B0CCEF0BF033
:10179400CEEF0BF085EF0BF0EEEF0BF06DC100F127
:1017A4006EC101F16FC102F170C103F1000E046F4B
:1017B400000E056F200E066F410E076FACEC1DF096
:1017C40000C16DF101C16EF102C16FF103C170F18D
:1017D40001016907D8A06A0765C119F166C11AF148
:1017E40067C11BF168C11CF16DC11DF16EC11EF111
:1017F4006FC11FF170C120F109EC28F00101D8A0DC
:1018040006EF0CF008EF0CF0D0EF0BF033C106F14B
:10181400076B64EC30F0010106515A6F5AC157F15D
:10182400670E5A19D8A419EF0CF01BEF0CF041EF16
:101834000CF0A351A411D8A422EF0CF024EF0CF067
:1018440028EF0CF0000EA46F010EA36FA4BF35EFB8
:101854000CF0A45106E1A305D8B033EF0CF035EF3A
:101864000CF03BEF0CF0000E566F060E556F4AEF6E
:101874000CF0A3C155F1A4C156F14AEF0CF0A4BF7A
:1018840046EF0CF048EF0CF035EF0CF03BEF0CF0AA
:10189400670E5A19D8A451EF0CF053EF0CF082EFF5
:1018A4000CF06AAF61EF0CF0FC0E695DFF0E6A5933
:1018B400D8A05FEF0CF061EF0CF080EF0CF0FF0E9E
:1018C400346FFF0E356F55C136F156C137F13451BF
:1018D4003627355137236951365D3751800A386FC1
:1018E4006A51800A3859D8A07AEF0CF07CEF0CF0DA
:1018F40080EF0CF0660E576F82EF0CF0650E576F99
:1019040055C14DF156C14EF1670E5A19D8A48DEF49
:101914000CF08FEF0CF09FEF0CF0660E5719D8A463
:1019240096EF0CF098EF0CF0A1EF0CF06ABF9FEF6C
:101934000CF09DEF0CF0A1EF0CF04D4B4E2B660E0E
:101944005719D8A4A8EF0CF0AAEF0CF0CAEF0CF0CA
:101954006ABFB1EF0CF0AFEF0CF0BDEF0CF0000E6E
:101964006D6F000E6E6F800E6F6F3F0E706F000E06
:101974006A6F000E696F670E5A19D8B4C4EF0CF081
:10198400C6EF0CF0CAEF0CF069514D276A514E2393
:10199400000E646F000E636F65C15BF166C15CF19C
:1019A40067C15DF168C15EF16DC139F16EC13AF193
:1019B4006FC13BF170C13CF15CEF0DF05BC100F114
:1019C4005CC101F15DC102F15EC103F16DC104F1BD
:1019D4006EC105F16FC106F170C107F1ACEC1DF0E9
:1019E40000C119F101C11AF102C11BF103C11CF1BB
:1019F4005DEC22F019C15FF11AC160F11BC161F104
:101A04001CC162F15FC100F160C101F161C102F169
:101A140062C103F185EC27F000C151F101C152F11B
:101A24005BC119F15CC11AF15DC11BF15EC11CF10E
:101A34006DC104F16EC105F16FC106F170C107F10A
:101A44005FC100F160C101F161C102F162C103F142
:101A540081EC19F000C11DF101C11EF102C11FF199
:101A640003C120F1CAEC31F019C15BF11AC15CF178
:101A74001BC15DF11CC15EF16DC100F16EC101F1CC
:101A84006FC102F170C103F1000E0101046F000E79
:101A9400056F200E066F410E076FACEC1DF000C100
:101AA4006DF101C16EF102C16FF103C170F1010169
:101AB400634B642B4D51635D6451800A346F4E5106
:101AC400800A3459D8A069EF0DF06BEF0DF0E0EF08
:101AD4000CF06DC100F16EC101F16FC102F170C172
:101AE40003F1000E046F000E056FA00E066F400E8A
:101AF400076F81EC19F000C15FF101C160F102C10F
:101B040061F103C162F15BC119F15CC11AF15DC1FC
:101B14001BF15EC11CF15FC11DF160C11EF161C109
:101B24001FF162C120F109EC28F00101D8B09DEF4A
:101B34000DF09FEF0DF0A9EF0DF0000E5F6F000E9A
:101B4400606F000E616F000E626FD2EF0DF05BC12B
:101B540000F15CC101F15DC102F15EC103F15FC13D
:101B640004F160C105F161C106F162C107F1A5ECA0
:101B74002DF00101D8A0C1EF0DF0C3EF0DF0D2EFAD
:101B84000DF051B1C8EF0DF0CAEF0DF0D2EF0DF02A
:101B9400000E5F6F000E606F000E616F000E626FCB
:101BA40065C100F166C101F167C102F168C103F1C9
:101BB4005FC104F160C105F161C106F162C107F1C1
:101BC40031EC10F000C15BF101C15CF102C15DF1C7
:101BD40003C15EF139C16DF13AC16EF13BC16FF1E0
:101BE4003CC170F1650E01015719D8B4FCEF0DF03A
:101BF400FEEF0DF004EF0EF069C14FF16AC150F130
:101C040008EF0EF0000E506F000E4F6F000E4C6F79
:101C1400000E4B6F000E4A6F000E496F000E646F8A
:101C2400000E636F04EF0FF05BC100F15CC101F1C2
:101C34005DC102F15EC103F16DC104F16EC105F134
:101C44006FC106F170C107F1ACEC1DF000C119F1D0
:101C540001C11AF102C11BF103C11CF15DEC22F0B8
:101C640019C15FF11AC160F11BC161F11CC162F1BC
:101C74005FC100F160C101F161C102F162C103F110
:101C840085EC27F000C151F101C152F10101A5B960
:101C94004EEF0EF050EF0EF06DEF0EF05151521169
:101CA400D8A457EF0EF059EF0EF06DEF0EF0670E5B
:101CB4005A19D8A460EF0EF062EF0EF06DEF0EF03B
:101CC40050BF69EF0EF067EF0EF06DEF0EF0494B69
:101CD4004A2BB7EF0EF04B514C11D8A474EF0EF011
:101CE40076EF0EF0A0EF0EF050BF7DEF0EF07BEF1D
:101CF4000EF0A0EF0EF0A90E6B25D96E010E6C212B
:101D0400DA6E2E0EDF6E6B4B6C2B5807D8A059077A
:101D1400000E4C6F010E4B6FA0EF0EF0A90E6B2559
:101D2400D96E010E6C21DA6E300EDF6E6B4B6C2BAC
:101D34005807D8A059074907D8A04A0749514A115A
:101D4400D8A4A7EF0EF0A9EF0EF090EF0EF0A90EB5
:101D54006B25D96E010E6C21DA6E5151300FDF6E96
:101D64006B4B6C2B5807D8A059075BC119F15CC1A8
:101D74001AF15DC11BF15EC11CF16DC104F16EC1AC
:101D840005F16FC106F170C107F15FC100F160C1D7
:101D940001F161C102F162C103F181EC19F000C1EA
:101DA4001DF101C11EF102C11FF103C120F1CAECF2
:101DB40031F019C15BF11AC15CF11BC15DF11CC1A9
:101DC4005EF16DC100F16EC101F16FC102F170C12C
:101DD40003F1000E0101046F000E056F200E066F63
:101DE400410E076FACEC1DF000C16DF101C16EF145
:101DF40002C16FF103C170F101014F07D8A0500770
:101E0400634B642B4D51635D6451800A346F4E51B2
:101E1400800A3459D8B011EF0FF013EF0FF021EF0F
:101E24000FF06CBF1FEF0FF06C5109E14B0E6B5DAF
:101E3400D8A01FEF0FF021EF0FF016EF0EF04B516B
:101E44004C11D8A428EF0FF02AEF0FF03BEF0FF05E
:101E5400A5A92FEF0FF031EF0FF03BEF0FF0A90E14
:101E64006B25D96E010E6C21DA6E2E0EDF6E6B4B74
:101E74006C2BA90E6B25D96E010E6C21DA6E000E47
:101E8400DF6E650E5719D8A44AEF0FF04CEF0FF030
:101E94001DEF10F0000E646F4F0E636FA90E6325E3
:101EA400D96E010E6421DA6E000EDF6E000E546FDF
:101EB400000E536F6ABF63EF0FF061EF0FF06BEF2B
:101EC4000FF0000E546F010E536F696D6A1FD8B086
:101ED4006A2B000E566F020E556F9DEF0FF06307CD
:101EE400D8A06407A90E6325D96E010E6421DA6EA9
:101EF40069C100F16AC101F1000E036F0A0E026F9D
:101F0400F4EC2CF001010051300FDF6E69C100F1D7
:101F14006AC101F1000E036F0A0E026FCCEC2BF0C4
:101F240000C169F101C16AF101015507D8A0560742
:101F34005807D8A0590769516A11D8A4A4EF0FF023
:101F4400A6EF0FF071EF0FF056BFB3EF0FF056513D
:101F540006E15505D8B0B1EF0FF0B3EF0FF071EF14
:101F64000FF06307D8A0640753515411D8A4BDEFF0
:101F74000FF0BFEF0FF0C5EF0FF0000E446F2B0E04
:101F8400436FC9EF0FF0000E446F2D0E436FA90E7F
:101F94006325D96E010E6421DA6E43C1DFFF580751
:101FA400D8A059076307D8A06407BF0E346FFF0E8B
:101FB400356F3351366F376B3451362735513723EC
:101FC40037510AE11A0E365DD8A0EBEF0FF0EEEFB1
:101FD4000FF0010EEFEF0FF0000E476F486B475103
:101FE4004811D8A4F8EF0FF0FAEF0FF000EF10F05B
:101FF400000E466F650E456F04EF10F0000E466F3D
:10200400450E456FA90E6325D96E010E6421DA6E63
:1020140045C1DFFF5807D8A05907A90E6B25006FEB
:10202400010E6C21016FA90E6325026F010E64215C
:10203400036FF6EC30F02DC116F12EC117F1A90E85
:102044000101186F010E196F58C11AF159C11BF122
:1020540067EC2BF016C12DF117C12EF1120001010E
:102064000351800B0C6F035103250E6F02AF3DEF3C
:1020740010F03FEF10F040EF10F00E810E51D8B485
:1020840046EF10F048EF10F05DEF10F00E29D8A4E1
:102094004EEF10F050EF10F058EF10F0000E006FFC
:1020A400000E016F000E026F000E036F028F000E10
:1020B400036F65EF10F0000E006F000E016F000E4D
:1020C400026F000E036F0751800B0D6F0C510D1939
:1020D400D8B46FEF10F071EF10F072EF10F00C8DB8
:1020E400075107250D6F06AF7AEF10F07CEF10F063
:1020F4007DEF10F00D810D51D8B483EF10F085EF12
:1021040010F09AEF10F00D29D8A48BEF10F08DEF9A
:1021140010F095EF10F0000E046F000E056F000E26
:10212400066F000E076F068F000E076FA2EF10F008
:10213400000E046F000E056F000E066F000E076F91
:102144000E510D5DD8B0A9EF10F0ABEF10F0D2EF47
:1021540010F00CADB0EF10F0B2EF10F0B4EF10F0DF
:10216400800E0C1B0EC10FF10DC10EF10FC10DF14C
:1021740000C10FF104C100F10FC104F101C10FF15D
:1021840005C101F10FC105F102C10FF106C102F150
:102194000FC106F103C10FF107C103F10FC107F12C
:1021A400000E0F6F0E510DC108F1096B085F000E90
:1021B400095B09BFE7EF10F0095109E11A0E085D48
:1021C400D8A0E7EF10F0E9EF10F020EF11F0005184
:1021D400011102110311D8A4F2EF10F0F5EF10F081
:1021E400010EF6EF10F0000E0F6F000E006F000EE0
:1021F400016F000E026F000E036F0DC10EF129EF87
:1022040011F00FA108EF11F00AEF11F010EF11F027
:10221400D8900F3101090F6F12EF11F0D8900F33DE
:1022240000A117EF11F019EF11F01AEF11F00F8F51
:10223400033503330233013300330E2B0D510E5D8E
:10224400D8A027EF11F029EF11F003EF11F00CBD26
:102254002EEF11F030EF11F070EF11F00E51D8A401
:1022640036EF11F038EF11F042EF11F0000E006F6D
:10227400000E016F000E026F000E036F91EF12F05B
:10228400045100270551012306510223075103235A
:1022940003A14FEF11F051EF11F0FDEF11F00FA179
:1022A40056EF11F058EF11F05EEF11F0D8900F31A6
:1022B40001090F6F60EF11F0D8900F3300A165EFA3
:1022C40011F067EF11F068EF11F00F8F033503334E
:1022D4000233013300330E2BFDEF11F00451005D86
:1022E40005510159065102590351800A086F0751DB
:1022F400800A0859D8B081EF11F083EF11F0AEEFE6
:1023040011F00051045D086F01510559096F025124
:1023140006590A6F035107590B6FFF0E0825006F0A
:10232400FF0E0921016FFF0E0A21026FFF0E0B2120
:10233400036F800E0C1B0F6D0F51D8A4A4EF11F086
:10234400A6EF11F0B6EF11F0010E0027000E0123E5
:1023540002230323B6EF11F00451005F0551015B22
:102364000651025B0751035B005101110211031175
:10237400D8A4BFEF11F0C1EF11F0F6EF11F00F5137
:10238400D8A4C7EF11F0C9EF11F0F6EF11F0000E69
:10239400006F000E016F000E026F000E036F91EFCD
:1023A40012F0D89000370137023703370FAFDDEF53
:1023B40011F0DFEF11F0E0EF11F000810FA1E5EF74
:1023C40011F0E7EF11F0EBEF11F0D8800F37EDEFDC
:1023D40011F0D8900F370E51D8B4F3EF11F0F5EF98
:1023E40011F0F6EF11F00E0702AFFBEF11F0FDEF65
:1023F40011F0D3EF11F0000E0D6F0FAF04EF12F0D8
:1024040006EF12F01EEF12F00FC108F17F0E08174D
:10241400D8B40FEF12F011EF12F015EF12F0010E15
:102424000D6F1EEF12F000A11AEF12F01CEF12F064
:102434001EEF12F011EF12F00D51D8B424EF12F088
:1024440026EF12F051EF12F0010E0027000E0123C7
:102454000223032303A131EF12F033EF12F051EF03
:1024640012F000C108F101C109F102C10AF103C16E
:102474000BF10B350B330A330933083308C100F170
:1024840009C101F10AC102F10BC103F10E29D8B44B
:102494004EEF12F050EF12F051EF12F00E2B0E2906
:1024A400D8B457EF12F059EF12F061EF12F00E5159
:1024B400D8A45FEF12F061EF12F073EF12F0000E88
:1024C400006F000E016F000E026F000E036F0E51BD
:1024D400D8A46FEF12F071EF12F073EF12F0000E48
:1024E4000C6F0EA178EF12F07AEF12F07DEF12F07C
:1024F400028F7EEF12F0029FD8900E31036F0CAF63
:1025040086EF12F088EF12F089EF12F0038F00C10A
:1025140000F101C101F102C102F103C103F1120092
:102524000450800B0D6E045004240F6E03AE9DEF17
:1025340012F09FEF12F0A0EF12F00F800F50D8B4FA
:10254400A6EF12F0A8EF12F0BDEF12F00F28D8A4F6
:10255400AEEF12F0B0EF12F0B8EF12F0000E016E11
:10256400000E026E000E036E000E046E038E000E4B
:10257400046EC5EF12F0000E016E000E026E000E26
:10258400036E000E046E0850800B0E6E0D500E1874
:10259400D8B4CFEF12F0D1EF12F0D2EF12F00D8CCD
:1025A400085008240E6E07AEDAEF12F0DCEF12F0DA
:1025B400DDEF12F00E800E50D8B4E3EF12F0E5EF29
:1025C40012F0FAEF12F00E28D8A4EBEF12F0EDEFB0
:1025D40012F0F5EF12F0000E056E000E066E000EFE
:1025E400076E000E086E078E000E086E02EF13F0E1
:1025F400000E056E000E066E000E076E000E086ECD
:102604000F500E5CD8B009EF13F00BEF13F032EF5C
:1026140013F00DAC10EF13F012EF13F014EF13F0EE
:10262400800E0D1A0FC010F00EC00FF010C00EF087
:1026340001C010F005C001F010C005F002C010F098
:1026440006C002F010C006F003C010F007C003F08B
:1026540010C007F004C010F008C004F010C008F067
:10266400000E106E0F500EC009F00A6A095E000ECB
:102674000A5A0ABE47EF13F00A5009E11A0E095C20
:10268400D8A047EF13F049EF13F080EF13F0015097
:10269400021003100410D8A452EF13F055EF13F0F6
:1026A400010E56EF13F0000E106E000E016E000EB8
:1026B400026E000E036E000E046E0EC00FF089EF62
:1026C40013F010A068EF13F06AEF13F070EF13F03B
:1026D400D89010300109106E72EF13F0D8901032B8
:1026E40001A077EF13F079EF13F07AEF13F0108E67
:1026F400043404320332023201320F2A0E500F5CCA
:10270400D8A087EF13F089EF13F063EF13F00DBC3B
:102714008EEF13F090EF13F0D0EF13F00F50D8A416
:1027240096EF13F098EF13F0A2EF13F0000E016E82
:10273400000E026E000E036E000E046EF1EF14F034
:102744000550012606500222075003220850042295
:1027540004A0AFEF13F0B1EF13F05DEF14F010A08D
:10276400B6EF13F0B8EF13F0BEEF13F0D8901030BB
:102774000109106EC0EF13F0D890103201A0C5EF1C
:1027840013F0C7EF13F0C8EF13F0108E04340432C3
:102794000332023201320F2A5DEF14F00550015C5E
:1027A40006500258075003580450800A096E085016
:1027B400800A0958D8B0E1EF13F0E3EF13F00EEFFD
:1027C40014F00150055C096E025006580A6E03505D
:1027D40007580B6E045008580C6EFF0E0924016E46
:1027E400FF0E0A20026EFF0E0B20036EFF0E0C205C
:1027F400046E800E0D1A106C1050D8A404EF14F05F
:1028040006EF14F016EF14F0010E0126000E02225A
:102814000322042216EF14F00550015E0650025AFA
:102824000750035A0850045A0150021003100410B0
:10283400D8A41FEF14F021EF14F056EF14F0105049
:10284400D8A427EF14F029EF14F056EF14F0000E7B
:10285400016E000E026E000E036E000E046EF1EFA8
:1028640014F0D890013602360336043610AE3DEF2C
:1028740014F03FEF14F040EF14F0018010A045EF86
:1028840014F047EF14F04BEF14F0D88010364DEFEE
:1028940014F0D89010360F50D8B453EF14F055EF0D
:1028A40014F056EF14F00F0603AE5BEF14F05DEF77
:1028B40014F033EF14F0000E0E6E10AE64EF14F04B
:1028C40066EF14F07EEF14F010C009F07F0E0916C5
:1028D400D8B46FEF14F071EF14F075EF14F0010E2B
:1028E4000E6E7EEF14F001A07AEF14F07CEF14F07A
:1028F4007EEF14F071EF14F00E50D8B484EF14F09E
:1029040086EF14F0B1EF14F0010E0126000E02223E
:102914000322042204A091EF14F093EF14F0B1EF1A
:1029240014F001C009F002C00AF003C00BF004C0A7
:102934000CF00C340C320B320A32093209C001F0AB
:102944000AC002F00BC003F00CC004F00F28D8B486
:10295400AEEF14F0B0EF14F0B1EF14F00F2A0F281B
:10296400D8B4B7EF14F0B9EF14F0C1EF14F00F506E
:10297400D8A4BFEF14F0C1EF14F0D3EF14F0000E9D
:10298400016E000E026E000E036E000E046E0F50F8
:10299400D8A4CFEF14F0D1EF14F0D3EF14F0000E5D
:1029A4000D6E0FA0D8EF14F0DAEF14F0DDEF14F091
:1029B400038EDEEF14F0039ED8900F30046E0DAE3C
:1029C400E6EF14F0E8EF14F0E9EF14F0048E01C020
:1029D40001F002C002F003C003F004C004F01200CE
:1029E40073C1D9FF74C1DAFFDECFF6FFDDCFF7FF85
:1029F4000800F550250AD8A402EF15F004EF15F0ED
:102A040020EF17F073C1D9FF74C1DAFFDE2A000E7C
:102A1400DD22000E0101A26F000EA16FA1C1A5F17C
:102A2400A2C1A6F1A369A46973C1D9FF74C1DAFF75
:102A3400DECFF6FFDDCFF7FF0800F5502E0AD8A44D
:102A440026EF15F028EF15F0A6EF15F0000EA46F91
:102A5400000EA36F73C1D9FF74C1DAFFDE2A000E22
:102A6400DD2273C1D9FF74C1DAFFDECFF6FFDDCFFB
:102A7400F7FF0800F5502A0AD8A443EF15F045EFF4
:102A840015F062EF15F073C1D9FF74C1DAFFDE2AC5
:102A9400000EDD2275C1D9FF76C1DAFFDFCF77F1F1
:102AA400020EDE26DFCF78F1000EDD2277C1D9FFDA
:102AB40078C1DAFFDECFA3F1DDCFA4F1A6EF15F0E4
:102AC40073C1D9FF74C1DAFFDECF07F1DDCF08F19E
:102AD4004BEC25F007C1A3F108C1A4F179EF15F07F
:102AE40073C1D9FF74C1DAFFDE2A000EDD22D00ED5
:102AF4000101776FFF0E786F73C1D9FF74C1DAFFDC
:102B0400DECFF6FFDDCFF7FF0800F550796F7A6B63
:102B14007751792778517A237A510AE10A0E795D3F
:102B2400D8A097EF15F09AEF15F0010E9BEF15F072
:102B3400000E7B6F7C6B7B517C11D8A4A4EF15F045
:102B4400A6EF15F072EF15F073C1D9FF74C1DAFF67
:102B5400DECFF6FFDDCFF7FF0800F550066F076BF9
:102B640064EC30F001010651846F8451D8B4BDEF98
:102B740015F0BFEF15F0F9EF15F073C1D9FF74C16B
:102B8400DAFFDECF77F1DDCF78F1010E7727000E83
:102B9400782377C1F6FF78C1F7FF0800F550066F78
:102BA400076B64EC30F001010651856F8551D8B490
:102BB400DEEF15F0E0EF15F0F9EF15F073C1D9FF72
:102BC40074C1DAFFDECF77F1DDCF78F1020E77271B
:102BD400000E782377C1F6FF78C1F7FF0800F5509F
:102BE400066F076B64EC30F001010651866F660EC8
:102BF4008419D8A400EF16F002EF16F042EF16F095
:102C040073C1D9FF74C1DAFFDECFF6FFDDCFF7FF62
:102C14000800F5CF83F173C1D9FF74C1DAFFDE2A4E
:102C2400000EDD2275C1D9FF76C1DAFFDFCF77F15F
:102C3400040EDE26DFCF78F1000EDD2277C1D9FF46
:102C440078C1DAFFDECF7FF1DECF80F1DECF81F114
:102C5400DECF82F171C12DF172C12EF17FC12FF14E
:102C640080C130F181C131F182C132F183C133F1CC
:102C74002CEC0AF02DC171F12EC172F13CEF17F06A
:102C8400840E006F010E016F3F0E026F080E036F7A
:102C9400000E056F020E046F90EC2AF00101005142
:102CA4000111D8A458EF16F05AEF16F0E9EF16F018
:102CB40073C1D9FF74C1DAFFDECF77F1DDCF78F1CC
:102CC400010E7727000E782377C1F6FF78C1F7FF4E
:102CD4000800F5CF83F1BF0E776FFF0E786F73C1D5
:102CE400D9FF74C1DAFFDECFF6FFDDCFF7FF0800AE
:102CF400F550796F7A6B7751792778517A237A5125
:102D04000AE11A0E795DD8A08AEF16F08DEF16F05D
:102D1400010E8EEF16F0000E7D6F7E6B7D517E11DD
:102D2400D8B497EF16F099EF16F0B3EF16F075C11B
:102D3400D9FF76C1DAFFDFCF77F1040EDE26DFCFCD
:102D440078F1000EDD2277C1D9FF78C1DAFFDECF3A
:102D54007FF1DECF80F1DECF81F1DECF82F1CBEFE8
:102D640016F075C1D9FF76C1DAFFDFCF77F1040E13
:102D7400DE26DFCF78F1000EDD2277C1D9FF78C1DE
:102D8400DAFFDECF7FF1DECF80F1DECF81F1DECF5F
:102D940082F1020E73C1D9FF74C1DAFFDE26000E80
:102DA400DD2271C12DF172C12EF17FC12FF180C1DD
:102DB40030F181C131F182C132F183C133F12CECA4
:102DC4000AF02DC171F12EC172F13CEF17F073C1FD
:102DD400D9FF74C1DAFFDECFF6FFDDCFF7FF0800BD
:102DE400F550250AD8A4F9EF16F0FBEF16F013EF0F
:102DF40017F073C1D9FF74C1DAFFDE2A000EDD2299
:102E0400000E076F250E066F71C108F172C109F13A
:102E140050EC2EF0000E0101726F010E716F3CEF49
:102E240017F073C1D9FF74C1DAFFDE2A000EDD2268
:102E3400000E726F000E716F3CEF17F073C1D9FF73
:102E440074C1DAFFDECFF6FFDDCFF7FF0800F550DF
:102E54000101066F076B71C108F172C109F150ECF1
:102E64002EF073C1D9FF74C1DAFFDE2A000EDD2211
:102E74000CEF17F012004AC0D9FF4BC0DAFFDECFC7
:102E8400F6FFDDCFF7FF0800F550250AD8A44DEF73
:102E940017F04FEF17F065EF19F04AC0D9FF4BC098
:102EA400DAFFDE2A000EDD22000E0101A26F000E01
:102EB400A16FA1C1A5F1A2C1A6F1A369A4694AC0E9
:102EC400D9FF4BC0DAFFDECFF6FFDDCFF7FF0800F6
:102ED400F5502E0AD8A471EF17F073EF17F0F0EF46
:102EE40017F0000EA46F000EA36F4AC0D9FF4BC0A9
:102EF400DAFFDE2A000EDD224AC0D9FF4BC0DAFF1A
:102F0400DECFF6FFDDCFF7FF0800F5502A0AD8A47C
:102F14008EEF17F090EF17F0ADEF17F04AC0D9FF1E
:102F24004BC0DAFFDE2A000EDD224CC0D9FF4DC0B3
:102F3400DAFFDFCF4EF0020EDE26DFCF4FF0000EB9
:102F4400DD224EC0D9FF4FC0DAFFDECFA3F1DDCFC3
:102F5400A4F1F0EF17F04AC0D9FF4BC0DAFFDECF7F
:102F640008F0DDCF09F015EC26F008C0A3F109C084
:102F7400A4F1C4EF17F04AC0D9FF4BC0DAFFDE2A30
:102F8400000EDD22D00E4E6EFF0E4F6E4AC0D9FFEA
:102F94004BC0DAFFDECFF6FFDDCFF7FF0800F550B8
:102FA400506E516A4E5050264F50512251500AE1F2
:102FB4000A0E505CD8A0E1EF17F0E4EF17F0010E11
:102FC400E5EF17F0000E526E536A52505310D8A416
:102FD400EEEF17F0F0EF17F0BDEF17F04AC0D9FF8E
:102FE4004BC0DAFFDECFF6FFDDCFF7FF0800F55068
:102FF400076E086AC6EC30F007505A6E5A50D8B4BF
:1030040006EF18F008EF18F040EF18F04AC0D9FFA7
:103014004BC0DAFFDECF4EF0DDCF4FF0010E4E266F
:10302400000E4F224EC0F6FF4FC0F7FF0800F550C8
:10303400076E086AC6EC30F007505B6E5B50D8B47C
:1030440026EF18F028EF18F040EF18F04AC0D9FF27
:103054004BC0DAFFDECF4EF0DDCF4FF0020E4E262E
:10306400000E4F224EC0F6FF4FC0F7FF0800F55088
:10307400076E086AC6EC30F007505C6E660E5A188C
:10308400D8A447EF18F049EF18F089EF18F04AC0B8
:10309400D9FF4BC0DAFFDECFF6FFDDCFF7FF080024
:1030A400F5CF5DF04AC0D9FF4BC0DAFFDE2A000E2F
:1030B400DD224CC0D9FF4DC0DAFFDFCF4EF0040E45
:1030C400DE26DFCF4FF0000EDD224EC0D9FF4FC009
:1030D400DAFFDECF56F0DECF57F0DECF58F0DECF8A
:1030E40059F048C03CF049C03DF056C03EF057C0CE
:1030F4003FF058C040F059C041F05DC042F022ECAE
:1031040004F03CC048F03DC049F080EF19F05A0E7D
:10311400016E000E026E3F0E036E080E046E000E6A
:10312400066E020E056EFCEC2AF001500210D8A4C3
:103134009EEF18F0A0EF18F02FEF19F04AC0D9FF56
:103144004BC0DAFFDECF4EF0DDCF4FF0010E4E263E
:10315400000E4F224EC0F6FF4FC0F7FF0800F5CF18
:103164005DF0BF0E4E6EFF0E4F6E4AC0D9FF4BC0CE
:10317400DAFFDECFF6FFDDCFF7FF0800F550506E23
:10318400516A4E5050264F50512251500AE11A0EA6
:10319400505CD8A0D0EF18F0D3EF18F0010ED4EFA4
:1031A40018F0000E546E556A54505510D8B4DDEF23
:1031B40018F0DFEF18F0F9EF18F04CC0D9FF4DC04C
:1031C400DAFFDFCF4EF0040EDE26DFCF4FF0000E25
:1031D400DD224EC0D9FF4FC0DAFFDECF56F0DECF7E
:1031E40057F0DECF58F0DECF59F011EF19F04CC094
:1031F400D9FF4DC0DAFFDFCF4EF0040EDE26DFCF5D
:103204004FF0000EDD224EC0D9FF4FC0DAFFDECFF3
:1032140056F0DECF57F0DECF58F0DECF59F0020E75
:103224004AC0D9FF4BC0DAFFDE26000EDD2248C0BB
:103234003CF049C03DF056C03EF057C03FF058C086
:1032440040F059C041F05DC042F022EC04F03CC0B3
:1032540048F03DC049F080EF19F04AC0D9FF4BC097
:10326400DAFFDECFF6FFDDCFF7FF0800F550250AC1
:10327400D8A43FEF19F041EF19F058EF19F04AC004
:10328400D9FF4BC0DAFFDE2A000EDD22000E086EE5
:10329400250E076E48C009F049C00AF09CEC2EF0D8
:1032A400000E496E010E486E80EF19F04AC0D9FF36
:1032B4004BC0DAFFDE2A000EDD22000E496E000E3E
:1032C400486E80EF19F04AC0D9FF4BC0DAFFDECF59
:1032D400F6FFDDCFF7FF0800F550076E086A48C017
:1032E40009F049C00AF09CEC2EF04AC0D9FF4BC04B
:1032F400DAFFDE2A000EDD2252EF19F0120001017E
:103304000351800B0C6F03510325126F02AF8DEF35
:1033140019F08FEF19F090EF19F012811251D8B40F
:1033240096EF19F098EF19F0ABEF19F01229D8A421
:103334009EEF19F0A0EF19F0A8EF19F0000E006F3E
:10334400000E016F000E026F000E036F028FB3EFC9
:1033540019F0000E006F000E016F000E026F000ED8
:10336400036F0751800B0C1B07510725116F06AF24
:10337400BEEF19F0C0EF19F0C1EF19F0118111512E
:10338400D8B4C7EF19F0C9EF19F0DCEF19F011291F
:10339400D8A4CFEF19F0D1EF19F0D9EF19F0000E3E
:1033A400046F000E056F000E066F000E076F068F88
:1033B400E4EF19F0000E046F000E056F000E066FA7
:1033C400000E076F1151D8B4EAEF19F0ECEF19F0C1
:1033D400F4EF19F01251D8A4F2EF19F0F4EF19F048
:1033E400FEEF19F0000E006F000E016F000E026F69
:1033F400000E036F96EF1BF006510003F3CF17F195
:10340400F4CF18F117510D6F0E6B0F6B106B185131
:10341400136F146B156B166B05510103F3CF17F182
:10342400F4CF18F117510D27000E0E230F2310238C
:1034340018511327000E14231523162304510203D5
:10344400F3CF17F1F4CF18F117510D27000E0E2307
:103454000F23102318511327000E142315231623AA
:103464000FC110F10EC10FF10DC10EF10D6B04511E
:103474000103F3CF17F1F4CF18F117510D271851A9
:103484000E23000E0F23000E102305510003F3CF6B
:1034940017F1F4CF18F117510D2718510E23000E10
:1034A4000F23000E10230FC110F10EC10FF10DC137
:1034B4000EF10D6B04510003F3CF17F1F4CF18F1A3
:1034C40017510D2718510E23000E0F23000E102341
:1034D40006510103F3CF17F1F4CF18F11751132755
:1034E40018511423000E1523000E16230551020350
:1034F400F3CF17F1F4CF18F11751132718511423F0
:10350400000E1523000E162306510203F3CF17F104
:10351400F4CF18F11751086F1851096F0A6B0B6B30
:103524000AC10BF109C10AF108C109F1086B08517C
:103534001327095114230A5115230B5116230DC1C6
:1035440008F10EC109F10FC10AF110C10BF1190EF6
:10355400B1EF1AF0D8900B330A3309330833E82E4D
:10356400ACEF1AF008511327095114230A511523FB
:103574000B5116230FC110F10EC10FF10DC10EF145
:103584000D6B115112C108F1096B0827000E0923B4
:10359400820E0825176FFF0E0921186FE7EF1AF046
:1035A400D890133714371537163710AFDCEF1AF0ED
:1035B400DEEF1AF0DFEF1AF01381D8900D370E37D3
:1035C4000F3710371707D8A0180715AFECEF1AF00C
:1035D400EEEF1AF0D2EF1AF0000E116F10AFF5EF04
:1035E4001AF0F7EF1AF01BEF1BF0FF0E0D15086F22
:1035F400FF0E0E15096FFF0E0F150A6F7F0E1015C3
:103604000B6F085109110A110B11D8B40CEF1BF000
:103614000EEF1BF012EF1BF0010E116F1BEF1BF0EE
:1036240013A117EF1BF019EF1BF01BEF1BF00EEFAC
:103634001BF01151D8B421EF1BF023EF1BF047EF1F
:103644001BF0010E1327000E14231523162316A1B5
:103654002EEF1BF030EF1BF047EF1BF013C108F106
:1036640014C109F115C10AF116C10BF10B350B3365
:103674000A330933083308C113F109C114F10AC12B
:1036840015F10BC116F1174B182B18BF52EF1BF095
:10369400185108E11729D8A052EF1BF054EF1BF082
:1036A4005EEF1BF0000E136F000E146F800E156F8B
:1036B4007F0E166F8CEF1BF018BF6BEF1BF01851C9
:1036C40006E11705D8B069EF1BF06BEF1BF077EF3D
:1036D4001BF0000E136F000E146F000E156F000E1A
:1036E400166F000E0C6F8CEF1BF017C112F1FF0E5A
:1036F4001317FF0E14177F0E1517000E161712A1BD
:1037040086EF1BF088EF1BF089EF1BF0158FD89024
:103714001231166F0C51161313C100F114C101F1CB
:1037240015C102F116C103F112000450800B0D6E95
:1037340004500424136E03AEA2EF1BF0A4EF1BF09D
:10374400A5EF1BF013801350D8B4ABEF1BF0ADEF13
:103754001BF0C0EF1BF01328D8A4B3EF1BF0B5EF98
:103764001BF0BDEF1BF0000E016E000E026E000E8A
:10377400036E000E046E038EC8EF1BF0000E016E84
:10378400000E026E000E036E000E046E0850800BD5
:103794000D1A08500824126E07AED3EF1BF0D5EFB4
:1037A4001BF0D6EF1BF012801250D8B4DCEF1BF0E4
:1037B400DEEF1BF0F1EF1BF01228D8A4E4EF1BF0AE
:1037C400E6EF1BF0EEEF1BF0000E056E000E066E2A
:1037D400000E076E000E086E078EF9EF1BF0000E48
:1037E400056E000E066E000E076E000E086E125077
:1037F400D8B4FFEF1BF001EF1CF009EF1CF01350DD
:10380400D8A407EF1CF009EF1CF013EF1CF0000E16
:10381400016E000E026E000E036E000E046EABEF1E
:103824001DF007500102F3CF18F0F4CF19F018502F
:103834000E6E0F6A106A116A1950146E156A166AB0
:10384400176A06500202F3CF18F0F4CF19F018509B
:103854000E26000E0F221022112219501426000EDB
:1038640015221622172205500302F3CF18F0F4CFC5
:1038740019F018500E26000E0F2210221122195092
:103884001426000E15221622172210C011F00FC0A4
:1038940010F00EC00FF00E6A05500202F3CF18F0BC
:1038A400F4CF19F018500E2619500F22000E1022D2
:1038B400000E112206500102F3CF18F0F4CF19F0D4
:1038C40018500E2619500F22000E1022000E11223D
:1038D40010C011F00FC010F00EC00FF00E6A0550AA
:1038E4000102F3CF18F0F4CF19F018500E26195036
:1038F4000F22000E1022000E112207500202F3CFF5
:1039040018F0F4CF19F01850142619501522000E8F
:103914001622000E172206500302F3CF18F0F4CF3C
:1039240019F01850142619501522000E1622000EF4
:10393400172207500302F3CF18F0F4CF19F01850F0
:10394400096E19500A6E0B6A0C6A0BC00CF00AC09F
:103954000BF009C00AF0096A095014260A5015220E
:103964000B5016220C5017220EC009F00FC00AF09B
:1039740010C00BF011C00CF0190EC6EF1CF0D8905B
:103984000C320B320A320932E82EC1EF1CF0095016
:1039940014260A5015220B5016220C50172210C060
:1039A40011F00FC010F00EC00FF00E6A125013C0C9
:1039B40009F00A6A0926000E0A22820E0924186EEA
:1039C400FF0E0A20196EFCEF1CF0D8901436153641
:1039D4001636173611AEF1EF1CF0F3EF1CF0F4EFCE
:1039E4001CF01480D8900E360F3610361136180697
:1039F400D8A0190616AE01EF1DF003EF1DF0E7EF96
:103A04001CF0000E126E11AE0AEF1DF00CEF1DF04B
:103A140030EF1DF0FF0E0E14096EFF0E0F140A6E28
:103A2400FF0E10140B6E7F0E11140C6E09500A1049
:103A34000B100C10D8B421EF1DF023EF1DF027EF6D
:103A44001DF0010E126E30EF1DF014A02CEF1DF0CE
:103A54002EEF1DF030EF1DF023EF1DF01250D8B4FF
:103A640036EF1DF038EF1DF05CEF1DF0010E14264B
:103A7400000E15221622172217A043EF1DF045EF62
:103A84001DF05CEF1DF014C009F015C00AF016C05B
:103A94000BF017C00CF00C340C320B320A32093222
:103AA40009C014F00AC015F00BC016F00CC017F0D2
:103AB400184A192A19BE67EF1DF0195008E1182891
:103AC400D8A067EF1DF069EF1DF073EF1DF0000E35
:103AD400146E000E156E800E166E7F0E176EA1EF1B
:103AE4001DF019BE80EF1DF0195006E11804D8B07E
:103AF4007EEF1DF080EF1DF08CEF1DF0000E146EB4
:103B0400000E156E000E166E000E176E000E0D6E72
:103B1400A1EF1DF018C013F0FF0E1416FF0E1516BA
:103B24007F0E1616000E171613A09BEF1DF09DEFC7
:103B34001DF09EEF1DF0168ED8901330176E0D50A9
:103B4400171214C001F015C002F016C003F017C01C
:103B540004F0120001010351800B106F035103257F
:103B6400176F02AFB8EF1DF0BAEF1DF0BBEF1DF0F9
:103B740017811751D8B4C1EF1DF0C3EF1DF0D8EF72
:103B84001DF01729D8A4C9EF1DF0CBEF1DF0D3EF1A
:103B94001DF0000E006F000E016F000E026F000E8C
:103BA400036F028F000E036FE0EF1DF0000E006F35
:103BB400000E016F000E026F000E036F0751800BA1
:103BC400101B07510725186F06AFEBEF1DF0EDEF43
:103BD4001DF0EEEF1DF018811851D8B4F4EF1DF06C
:103BE400F6EF1DF00BEF1EF01829D8A4FCEF1DF022
:103BF400FEEF1DF006EF1EF0000E046F000E056FC1
:103C0400000E066F000E076F068F000E076F13EF8E
:103C14001EF0000E046F000E056F000E066F000EFE
:103C2400076F0451051106110711D8A41CEF1EF0EB
:103C34001EEF1EF036EF1EF0000E006F000E016F37
:103C4400000E026F000E036F800E02137F0E03132B
:103C54001051031300C100F101C101F102C102F1CD
:103C640003C103F179EF1FF01751D8A43CEF1EF004
:103C74003EEF1EF048EF1EF0000E006F000E016FC5
:103C8400000E026F000E036F79EF1FF0185117C179
:103C940008F1096B085F000E095B7F0E0825116FA0
:103CA400000E0921126F00C10CF101C10DF102C116
:103CB4000EF103C10FF1000E006F000E016F000E34
:103CC400026F000E036F000E136F000E146F000ED0
:103CD400156F000E166F000E186FA9EF1EF0185125
:103CE400D8B477EF1EF079EF1EF090EF1EF0D89065
:103CF4000C370D370E370F37D8900037013702379E
:103D0400033716AF88EF1EF08AEF1EF08BEF1EF01C
:103D14000081D890133714371537163704510C5DCA
:103D240005510D5906510E5907510F59D8A09DEF51
:103D34001EF09FEF1EF0A8EF1EF0168D04510C5FCD
:103D440005510D5B06510E5B07510F5B182B190EC5
:103D54001865AFEF1EF0B1EF1EF071EF1EF00C51BD
:103D64000D110E110F11D8B4BAEF1EF0BCEF1EF0F6
:103D7400D4EF1EF01381D4EF1EF0D8900037013732
:103D84000237033716AFC9EF1EF0CBEF1EF0CCEFAE
:103D94001EF00081D89013371437153716371107E2
:103DA400D8A0120702AFD9EF1EF0DBEF1EF0BFEF71
:103DB4001EF0000E186F16AFE2EF1EF0E4EF1EF0D7
:103DC40008EF1FF0FF0E1315086FFF0E1415096F8F
:103DD400FF0E15150A6F7F0E16150B6F085109118A
:103DE4000A110B11D8B4F9EF1EF0FBEF1EF0FFEF30
:103DF4001EF0010E186F08EF1FF000A104EF1FF072
:103E040006EF1FF008EF1FF0FBEF1EF01851D8B4B7
:103E14000EEF1FF010EF1FF034EF1FF0010E00271C
:103E2400000E01230223032303A11BEF1FF01DEF48
:103E34001FF034EF1FF000C108F101C109F102C104
:103E44000AF103C10BF10B350B330A330933083381
:103E540008C100F109C101F10AC102F10BC103F16A
:103E6400114B122B12BF3FEF1FF0125108E1112921
:103E7400D8A03FEF1FF041EF1FF04CEF1FF0000EF2
:103E8400126F1169000E006F000E016F000E026FB9
:103E9400000E036F12BF59EF1FF0125106E1110516
:103EA400D8B057EF1FF059EF1FF067EF1FF0000E67
:103EB400126F000E116F000E006F000E016F000EE6
:103EC400026F000E036F000E106F11C117F117A1DE
:103ED4006EEF1FF070EF1FF073EF1FF0028F74EF9F
:103EE4001FF0029FD8901731036F2AEF1EF01200C3
:103EF4001250800B1F6E12501224266E11AE85EFE5
:103F04001FF087EF1FF088EF1FF026802650D8B4EB
:103F14008EEF1FF090EF1FF0A5EF1FF02628D8A416
:103F240096EF1FF098EF1FF0A0EF1FF0000E0F6E3A
:103F3400000E106E000E116E000E126E118E000E29
:103F4400126EADEF1FF0000E0F6E000E106E000E1D
:103F5400116E000E126E1650800B1F1A1650162486
:103F6400276E15AEB8EF1FF0BAEF1FF0BBEF1FF0CE
:103F740027802750D8B4C1EF1FF0C3EF1FF0D8EF4C
:103F84001FF02728D8A4C9EF1FF0CBEF1FF0D3EF01
:103F94001FF0000E136E000E146E000E156E000E50
:103FA400166E158E000E166EE0EF1FF0000E136EE7
:103FB400000E146E000E156E000E166E13501410C3
:103FC40015101610D8A4E9EF1FF0EBEF1FF003EF64
:103FD40020F0000E0F6E000E106E000E116E000E1B
:103FE400126E800E11127F0E12121F5012120FC089
:103FF4000FF010C010F011C011F012C012F046EF13
:1040040021F02650D8A409EF20F00BEF20F015EF93
:1040140020F0000E0F6E000E106E000E116E000EDA
:10402400126E46EF21F0275026C017F0186A175E6B
:10403400000E185A7F0E1724206E000E1820216ED1
:104044000FC01BF010C01CF011C01DF012C01EF0F8
:10405400000E0F6E000E106E000E116E000E126E2A
:10406400000E226E000E236E000E246E000E256ECE
:10407400000E276E76EF20F02750D8B444EF20F0DE
:1040840046EF20F05DEF20F0D8901B361C361D362D
:104094001E36D8900F3610361136123625AE55EF2F
:1040A40020F057EF20F058EF20F00F80D890223600
:1040B40023362436253613501B5C14501C581550D7
:1040C4001D5816501E58D8A06AEF20F06CEF20F04F
:1040D40075EF20F0258C13501B5E14501C5A15509C
:1040E4001D5A16501E5A272A190E27647CEF20F0F9
:1040F4007EEF20F03EEF20F01B501C101D101E1010
:10410400D8B487EF20F089EF20F0A1EF20F02280CF
:10411400A1EF20F0D8900F3610361136123625AEA6
:1041240096EF20F098EF20F099EF20F00F80D890D0
:1041340022362336243625362006D8A0210611AE91
:10414400A6EF20F0A8EF20F08CEF20F0000E276EF1
:1041540025AEAFEF20F0B1EF20F0D5EF20F0FF0E49
:104164002214176EFF0E2314186EFF0E2414196EFA
:104174007F0E25141A6E1750181019101A10D8B47F
:10418400C6EF20F0C8EF20F0CCEF20F0010E276E30
:10419400D5EF20F00FA0D1EF20F0D3EF20F0D5EF32
:1041A40020F0C8EF20F02750D8B4DBEF20F0DDEF8B
:1041B40020F001EF21F0010E0F26000E1022112233
:1041C400122212A0E8EF20F0EAEF20F001EF21F034
:1041D4000FC017F010C018F011C019F012C01AF077
:1041E4001A341A3219321832173217C00FF018C0A5
:1041F40010F019C011F01AC012F0204A212A21BE71
:104204000CEF21F0215008E12028D8A00CEF21F078
:104214000EEF21F019EF21F0000E216E2068000E40
:104224000F6E000E106E000E116E000E126E21BE87
:1042340026EF21F0215006E12004D8B024EF21F02C
:1042440026EF21F034EF21F0000E216E000E206ED7
:10425400000E0F6E000E106E000E116E000E126E28
:10426400000E1F6E20C026F026A03BEF21F03DEF8C
:1042740021F040EF21F0118E41EF21F0119ED890F2
:104284002630126EF7EF1FF012000600E1CFAAF0FD
:10429400E2CFABF0D9CFACF0DACFADF0F3CFAEF0E4
:1042A400F4CFAFF0F6CFB0F0F7CFB1F0F8CFB2F073
:1042B400F5CFB3F0F2A261EF21F063EF21F0B8EF94
:1042C40021F0030E0101F91907E10F0EFA19D8A420
:1042D4006EEF21F070EF21F0B7EF21F00001BE5135
:1042E400BF11D8A478EF21F07AEF21F0B7EF21F0D5
:1042F400C0C001F0C1C002F0000E02BEFF0E036E8A
:10430400046E010E71EC24F001C00FF002C010F035
:1043140003C011F004C012F0000E136E000E146EF0
:10432400C80E156E420E166E7AEC1FF00FC0B8F070
:1043340010C0B9F011C0BAF012C0BBF00001BC51FA
:10434400BD11D8A4A8EF21F0AAEF21F0B0EF21F01D
:104354000D0E0101A86F010EA76F8280000E0001EF
:10436400BF6F010EBE6FDDEC26F0F292F0A0BDEF40
:1043740021F0BFEF21F014EF22F0030E0101F9192F
:1043840007E10F0EFA19D8A4CAEF21F0CCEF21F0FF
:1043940013EF22F00001BC51BD11D8A4D4EF21F0D9
:1043A400D6EF21F013EF22F0C0C001F0C1C002F03B
:1043B400000E02BEFF0E036E046E010E71EC24F0BB
:1043C40001C00FF002C010F003C011F004C012F0DD
:1043D400000E136E000E146EC80E156E420E166E8D
:1043E4007AEC1FF00FC0B4F010C0B5F011C0B6F0F5
:1043F40012C0B7F00001BE51BF11D8A404EF22F0DF
:1044040006EF22F00CEF22F00D0E0101A86F020E50
:10441400A76F8282000E0001BD6F010EBC6FDDEC40
:1044240026F0F090F0A219EF22F01BEF22F03CEFFF
:1044340022F00101F90507E10F0EFA19D8A425EFBE
:1044440022F027EF22F02BEF22F00F0EFA6F020E6C
:10445400F96F030EF91907E10F0EFA19D8A435EF15
:1044640022F037EF22F03BEF22F00F0EFA6F040E2A
:10447400F96FF0929EA241EF22F043EF22F047EF52
:1044840022F00001C04BC12B9E92B3C0F5FFB2C015
:10449400F8FFB1C0F7FFB0C0F6FFAFC0F4FFAEC085
:1044A400F3FFADC0DAFFACC0D9FFABC0E2FFAAC0D6
:1044B400E1FF5E92110097C129F198C12AF199C1D7
:1044C4002BF19AC12CF119C129F11AC12AF11BC18E
:1044D4002BF11CC12CF1810E01011D6FFF0E1E6F0B
:1044E40029C11FF12AC120F12BC121F12CC122F1D4
:1044F400180E82EF22F0D8902233213320331F3359
:10450400E82E7DEF22F01F511D25276F000E1E217E
:10451400286F28BF97EF22F0285109E1170E275D75
:10452400D8A097EF22F099EF22F0A3EF22F019C15F
:1045340019F11AC11AF11BC11BF11CC11CF167EF5F
:1045440023F028BFA8EF22F0AAEF22F01BEF23F0FC
:1045540027C11DF1FF0E1E6FFF0E1F6F7F0E206F10
:10456400000E216F1D67B9EF22F0C1EF22F0213553
:10457400213320331F331E331D2FB4EF22F01EC10D
:1045840023F11FC124F120C125F121C126F101012C
:10459400235129151D6F24512A151E6F25512B15E2
:1045A4001F6F26512C15206F1D511E111F11201134
:1045B400D8A4DFEF22F0E1EF22F0E3EF22F099EF4D
:1045C40022F029C11DF12AC11EF12BC11FF12CC1FA
:1045D40020F1200EF3EF22F0D89020331F331E3346
:1045E4001D33E82EEEEF22F01D511E111F11201174
:1045F400D8B4FFEF22F001EF23F009EF23F02351A9
:10460400292724512A2325512B2326512C23231DCA
:104614001D6F241D1E6F251D1F6F261D206F1D512C
:1046240029171E512A171F512B1720512C175FEFE2
:1046340023F029C11DF12AC11EF12BC11FF12CC188
:1046440020F1200E2BEF23F0D89020331F331E339C
:104654001D33E82E26EF23F01D511E111F112011CA
:10466400D8A437EF23F039EF23F043EF23F0000E03
:10467400296F000E2A6F000E2B6F000E2C6F5FEF58
:1046840023F0D89029351D6F2A351E6F2B351F6FE7
:104694002C35206F1D511E111F112011D8B455EF58
:1046A40023F057EF23F05FEF23F0000E296F000E85
:1046B4002A6F800E2B6FBF0E2C6F29C119F12AC1EE
:1046C4001AF12BC11BF12CC11CF1120097C138F057
:1046D40098C139F099C13AF09AC13BF028C038F03A
:1046E40029C039F02AC03AF02BC03BF0810E2C6E61
:1046F400FF0E2D6E38C02EF039C02FF03AC030F0C6
:104704003BC031F0180E8CEF23F0D89031323032A8
:104714002F322E32E82E87EF23F02E502C24366EC3
:10472400000E2D20376E37BEA1EF23F0375009E17C
:10473400170E365CD8A0A1EF23F0A3EF23F0ADEF62
:1047440023F028C028F029C029F02AC02AF02BC061
:104754002BF070EF24F037BEB2EF23F0B4EF23F068
:1047640024EF24F036C02CF0FF0E2D6EFF0E2E6EBB
:104774007F0E2F6E000E306E2C66C3EF23F0CBEF4E
:1047840023F0303430322F322E322D322C2EBEEF25
:1047940023F02DC032F02EC033F02FC034F030C0DF
:1047A40035F0325038142C6E335039142D6E345089
:1047B4003A142E6E35503B142F6E2C502D102E10A3
:1047C4002F10D8A4E8EF23F0EAEF23F0ECEF23F066
:1047D400A3EF23F038C02CF039C02DF03AC02EF0EE
:1047E4003BC02FF0200EFCEF23F0D8902F322E3256
:1047F4002D322C32E82EF7EF23F02C502D102E10F2
:104804002F10D8B408EF24F00AEF24F012EF24F0AC
:10481400325038263350392234503A2235503B2214
:10482400321C2C6E331C2D6E341C2E6E351C2F6ED8
:104834002C5038162D5039162E503A162F503B1640
:1048440068EF24F038C02CF039C02DF03AC02EF0B7
:104854003BC02FF0200E34EF24F0D8902F322E32AC
:104864002D322C32E82E2FEF24F02C502D102E1048
:104874002F10D8A440EF24F042EF24F04CEF24F0A2
:10488400000E386E000E396E000E3A6E000E3B6E4E
:1048940068EF24F0D89038342C6E39342D6E3A34C5
:1048A4002E6E3B342F6E2C502D102E102F10D8B49A
:1048B4005EEF24F060EF24F068EF24F0000E386E11
:1048C400000E396E800E3A6EBF0E3B6E38C028F073
:1048D40039C029F03AC02AF03BC02BF01200096E0F
:1048E4000950D8B478EF24F07AEF24F09CEF24F048
:1048F40004BE81EF24F07FEF24F09CEF24F001C08C
:1049040005F002C006F003C007F004C008F0051E5D
:10491400061E071E081E052A000E0622072208226C
:1049240005C00BF006C00CF007C00DF008C00EF077
:10493400A4EF24F001C00BF002C00CF003C00DF092
:1049440004C00EF00150021003100410D8A4ADEFFF
:1049540024F0AFEF24F0B9EF24F0000E016E000E46
:10496400026E000E036E000E046E4AEF25F0960EE2
:104974000A6EC3EF24F00A2AD8900E320D320C329C
:104984000B32000E0B14056E000E0C14066E000E96
:104994000D14076EFE0E0E14086E05500610071057
:1049A4000810D8A4D8EF24F0DAEF24F0BDEF24F0F7
:1049B400E8EF24F00A2A010E0B26000E0C220D2229
:1049C4000E22D8900E320D320C320B32000E0B1424
:1049D400056E000E0C14066E000E0D14076EFF0E0D
:1049E4000E14086E0550061007100810D8A4FDEF29
:1049F40024F0FFEF24F0DCEF24F007EF25F00A06A3
:104A0400D8900B360C360D360E360DBE0CEF25F055
:104A14000EEF25F016EF25F0020E0A6014EF25F0D4
:104A240016EF25F001EF25F00AB01BEF25F01DEF7E
:104A340025F01EEF25F00D9ED8900A320AC005F02D
:104A4400066A076A086A05C008F0076A066A056A02
:104A540005500B1206500C1207500D1208500E127E
:104A64000950D8B438EF25F03AEF25F042EF25F09D
:104A740004BE41EF25F03FEF25F042EF25F00E8E06
:104A84000BC001F00CC002F00DC003F00EC004F026
:104A94001200000E0101156F000E146F000E0E6F50
:104AA400000E0D6F58EF25F0074B082B010E136F06
:104AB40007C1F6FF08C1F7FF0800F550200AD8B473
:104AC40066EF25F068EF25F085EF25F0F70E096F06
:104AD400FF0E0A6F07C1F6FF08C1F7FF0800F55083
:104AE4000B6F0C6B09510B270A510C230C5109E174
:104AF400050E0B5DD8A081EF25F083EF25F085EF3F
:104B040025F0000E136F13C10FF1106B0F5110112C
:104B1400D8A48FEF25F091EF25F056EF25F09BEF09
:104B240025F0000E0E6F010E0D6F074B082BD1EF11
:104B340025F007C1F6FF08C1F7FF0800F550096F1B
:104B44000A6B0A51000AD8B4AAEF25F0D1EF25F078
:104B540009512B0AD8B497EF25F0060AD8B493EF7D
:104B640025F0D1EF25F014C100F115C101F1000EBB
:104B7400036F0A0E026F94EC33F007C1F6FF08C10D
:104B8400F7FF0800F5500101005F000E015B300ED5
:104B94000025146F000E0121156F97EF25F0D00E3C
:104BA400096FFF0E0A6F07C1F6FF08C1F7FF08007F
:104BB400F5500B6F0C6B09510B270A510C230C5148
:104BC4000AE10A0E0B5DD8A0EAEF25F0EDEF25F01F
:104BD400010EEEEF25F0000E116F126B1151121140
:104BE400D8A4F7EF25F0F9EF25F0B5EF25F00D5136
:104BF4000E11D8A400EF26F002EF26F010EF26F0F5
:104C040014C109F115C10AF1091F0A1F094B0A2B26
:104C140009C107F10AC108F114EF26F014C107F124
:104C240015C108F11200000E166E000E156E000E6E
:104C34000F6E000E0E6E21EF26F0084A092A010EAF
:104C4400146E08C0F6FF09C0F7FF0800F550200AEB
:104C5400D8B42FEF26F031EF26F04EEF26F0F70E02
:104C64000A6EFF0E0B6E08C0F6FF09C0F7FF0800BE
:104C7400F5500C6E0D6A0A500C260B500D220D5087
:104C840009E1050E0C5CD8A04AEF26F04CEF26F0A3
:104C94004EEF26F0000E146E14C010F0116A10507E
:104CA4001110D8A458EF26F05AEF26F01FEF26F083
:104CB40064EF26F0000E0F6E010E0E6E084A092AEC
:104CC40099EF26F008C0F6FF09C0F7FF0800F55079
:104CD4000A6E0B6A0B50000AD8B473EF26F099EFF2
:104CE40026F00A502B0AD8B460EF26F0060AD8B48E
:104CF4005CEF26F099EF26F015C001F016C002F023
:104D0400000E046E0A0E036EBCEC33F008C0F6FF0E
:104D140009C0F7FF0800F550015E000E025A300E7C
:104D24000124156E000E0220166E60EF26F0D00EE0
:104D34000A6EFF0E0B6E08C0F6FF09C0F7FF0800ED
:104D4400F5500C6E0D6A0A500C260B500D220D50B6
:104D54000AE10A0E0C5CD8A0B2EF26F0B5EF26F0FB
:104D6400010EB6EF26F0000E126E136A12501310E5
:104D7400D8A4BFEF26F0C1EF26F07EEF26F00E5048
:104D84000F10D8A4C8EF26F0CAEF26F0D8EF26F00B
:104D940015C00AF016C00BF00A1E0B1E0A4A0B2A95
:104DA4000AC008F00BC009F0DCEF26F015C008F0CB
:104DB40016C009F0120022EC34F00001BE51BF11FC
:104DC400D8B4E7EF26F0E9EF26F016EF27F0BC5150
:104DD400BD11D8B4F0EF26F0F2EF26F016EF27F06D
:104DE400010EA06F080EA16FB8C0A2F0B9C0A3F065
:104DF400BAC0A4F0BBC0A5F0A8EC33F0000E056E59
:104E0400020E33EC32F00C0E0001A06F080EA16FFD
:104E1400B4C0A2F0B5C0A3F0B6C0A4F0B7C0A5F06A
:104E2400A8EC33F084EF27F0BE51BF11D8B41DEFC6
:104E340027F01FEF27F044EF27F0BC51BD11D8A491
:104E440026EF27F028EF27F044EF27F0010EA06F9C
:104E5400080EA16FB8C0A2F0B9C0A3F0BAC0A4F004
:104E6400BBC0A5F0A8EC33F0000E056E020E33ECC7
:104E740032F0270E0001A06F080EA16FA8EC33F0EA
:104E840084EF27F0BE51BF11D8A44BEF27F04DEFAC
:104E940027F072EF27F0BC51BD11D8B454EF27F0BE
:104EA40056EF27F072EF27F01F0EA06F080EA16FC8
:104EB400A8EC33F0000E056E020E33EC32F00C0E4B
:104EC4000001A06F080EA16FB4C0A2F0B5C0A3F09A
:104ED400B6C0A4F0B7C0A5F0A8EC33F084EF27F077
:104EE4001F0EA06F080EA16FA8EC33F0000E056E24
:104EF400020E33EC32F0270E0001A06F080EA16FF2
:104F0400A8EC33F01200010102350335096F095191
:104F1400D8A48FEF27F091EF27F09BEF27F0000E36
:104F2400006F000E016F000E026F000E036F08EF9A
:104F340028F000C104F101C105F102C106F103C169
:104F440007F1200EABEF27F0D89007330633053373
:104F54000433E82EA6EF27F00451086F028FFF0EEA
:104F64000017FF0E0117FF0E0217000E0317960E0F
:104F7400095F09BFC2EF27F0C0EF27F0D8EF27F091
:104F84000951800A970FD8B0CAEF27F0CCEF27F069
:104F9400CEEF27F091EF27F0D8900333023301339B
:104FA4000033093FCEEF27F0F0EF27F01F0E09651D
:104FB400DEEF27F0E0EF27F0E8EF27F091EF27F09E
:104FC400D890003701370237033709070951D8A4AD
:104FD400EEEF27F0F0EF27F0E2EF27F00851D8B416
:104FE400F6EF27F0F8EF27F000EF28F0031F021F79
:104FF400011F006D000E01230223032300C100F1F1
:1050040001C101F102C102F103C103F11200000E5A
:1050140001011915216F000E1A15226F800E1B1540
:10502400236F7F0E1C15246F21512211231124118B
:10503400D8A41FEF28F021EF28F029EF28F0000E64
:10504400196F000E1A6F000E1B6F000E1C6F000EFE
:105054001D15216F000E1E15226F800E1F15236F64
:105064007F0E2015246F2151221123112411D8A45D
:105074003EEF28F040EF28F048EF28F0000E1D6FB7
:10508400000E1E6F000E1F6F000E206F1CAF4DEF41
:1050940028F04FEF28F058EF28F0196D1A1FD8B0F8
:1050A4001A2B1B1FD8B01B2B800E1C5720AF5DEF93
:1050B40028F05FEF28F068EF28F01D6D1E1FD8B0B0
:1050C4001E2B1F1FD8B01F2B800E2057000E191B3C
:1050D400000E1A1B000E1B1B800E1C1B000E1D1B3A
:1050E400000E1E1B000E1F1B800E201B1D51195D80
:1050F4001E511A591F511B5920511C59D8B085EF04
:1051040028F087EF28F08AEF28F0D8908BEF28F06A
:10511400D8801200033404340A6E0A50D8A495EFE0
:1051240028F097EF28F0A1EF28F0000E016E000E92
:10513400026E000E036E000E046E0EEF29F001C025
:1051440005F002C006F003C007F004C008F0200E0A
:10515400B1EF28F0D8900832073206320532E82E33
:10516400ACEF28F00550096E038EFF0E0116FF0EFA
:105174000216FF0E0316000E0416960E0A5E0ABEF1
:10518400C8EF28F0C6EF28F0DEEF28F00A50800AB6
:10519400970FD8B0D0EF28F0D2EF28F0D4EF28F052
:1051A40097EF28F0D89004320332023201320A3EDB
:1051B400D4EF28F0F6EF28F01F0E0A64E4EF28F08D
:1051C400E6EF28F0EEEF28F097EF28F0D8900136BC
:1051D4000236033604360A060A50D8A4F4EF28F03F
:1051E400F6EF28F0E8EF28F00950D8B4FCEF28F0E7
:1051F400FEEF28F006EF29F0041E031E021E016CC8
:10520400000E02220322042201C001F002C002F0B7
:1052140003C003F004C004F01200000E1A14226E3E
:10522400000E1B14236E800E1C14246E7F0E1D149E
:10523400256E2250231024102510D8A424EF29F021
:1052440026EF29F02EEF29F0000E1A6E000E1B6EC9
:10525400000E1C6E000E1D6E000E1E14226E000E3B
:105264001F14236E800E2014246E7F0E2114256ECD
:105274002250231024102510D8A443EF29F045EF21
:1052840029F04DEF29F0000E1E6E000E1F6E000E69
:10529400206E000E216E1DAE52EF29F054EF29F05E
:1052A4005DEF29F01A6C1B1ED8B01B2A1C1ED8B047
:1052B4001C2A800E1D5621AE62EF29F064EF29F0FE
:1052C4006DEF29F01E6C1F1ED8B01F2A201ED8B007
:1052D400202A800E2156000E1A1A000E1B1A000EE8
:1052E4001C1A800E1D1A000E1E1A000E1F1A000E24
:1052F400201A800E211A1E501A5C1F501B58205071
:105304001C5821501D58D8B08AEF29F08CEF29F091
:105314008FEF29F0D89090EF29F0D88012009BC12C
:105324000AF19CC10BF19DC10CF19EC10DF100C1AC
:105334000AF101C10BF102C10CF103C10DF10AC163
:1053440004F10BC105F10CC106F10DC107F1180EF2
:10535400B2EF29F00101D890073306330533043343
:10536400E82EACEF29F00451086F096B08510911BC
:10537400D8A4BFEF29F0C1EF29F0E1EF29F0D890CC
:105384000A35046F0B35056F0C35066F0D35076F45
:105394000451051106110711D8A4D3EF29F0D5EF54
:1053A40029F0DBEF29F0000E016F020E006F10EF01
:1053B4002AF0000E016F030E006F10EF2AF0082987
:1053C4000911D8A4E8EF29F0EAEF29F00CEF2AF04C
:1053D4000AC104F10BC105F10CC106F10DC107F1BD
:1053E400090ED8900437053706370737E82EF3EF50
:1053F40029F00451051106110711D8B404EF2AF05D
:1054040007EF2AF0010E08EF2AF0000E006F016B7F
:1054140010EF2AF0000E016F040E006F12009BC102
:105424000BF09CC10CF09DC10DF09EC10EF001C0AB
:105434000BF002C00CF003C00DF004C00EF00BC062
:1054440005F00CC006F00DC007F00EC008F0180EF1
:1054540031EF2AF0D8900832073206320532E82EAE
:105464002CEF2AF00550096E0A6A09500A10D8A4D4
:105474003EEF2AF040EF2AF060EF2AF0D8900B3488
:10548400056E0C34066E0D34076E0E34086E05502E
:10549400061007100810D8A452EF2AF054EF2AF08F
:1054A4005AEF2AF0000E026E020E016E8FEF2AF000
:1054B400000E026E030E016E8FEF2AF009280A1007
:1054C400D8A467EF2AF069EF2AF08BEF2AF00BC01B
:1054D40005F00CC006F00DC007F00EC008F0090E70
:1054E400D8900536063607360836E82E72EF2AF0CD
:1054F4000550061007100810D8B483EF2AF086EF81
:105504002AF0010E87EF2AF0000E016E026A8FEF77
:105514002AF0000E026E040E016E120000C107F1A3
:1055240001C108F102C109F103C10AF10101040733
:10553400D8A00507042906E10529D8A4A4EF2AF078
:10554400A6EF2AF0B3EF2AF0000E016F000E006FF1
:10555400FBEF2AF0074B082B094B0A2B0407D8A0B2
:10556400050707C1D9FF08C1DAFFDF50D8B4BDEF82
:105574002AF0BFEF2AF0EAEF2AF009C1F6FF0AC1C8
:10558400F7FF0800F5500009D8B4CBEF2AF0CDEFAF
:105594002AF0EAEF2AF004510511D8B4D4EF2AF026
:1055A400D6EF2AF0EAEF2AF007C1D9FF08C1DAFFE3
:1055B400DF50066F09C1F6FF0AC1F7FF0800F55076
:1055C4000619D8B4E8EF2AF0EAEF2AF0ACEF2AF093
:1055D40007C1D9FF08C1DAFFDF50066F09C1F6FF22
:1055E4000AC1F7FF0800F550065D006F016BD8A0F3
:1055F4000107120001C008F002C009F003C00AF05C
:1056040004C00BF00506D8A00606052806E1062806
:10561400D8A40FEF2BF011EF2BF01EEF2BF0000EA0
:10562400026E000E016E66EF2BF0084A092A0A4A40
:105634000B2A0506D8A0060608C0D9FF09C0DAFF60
:10564400DF50D8B428EF2BF02AEF2BF055EF2BF0D6
:105654000AC0F6FF0BC0F7FF0800F5500009D8B4E4
:1056640036EF2BF038EF2BF055EF2BF005500610EA
:10567400D8B43FEF2BF041EF2BF055EF2BF008C0DF
:10568400D9FF09C0DAFFDF50076E0AC0F6FF0BC06E
:10569400F7FF0800F5500718D8B453EF2BF055EF77
:1056A4002BF017EF2BF008C0D9FF09C0DAFFDF5049
:1056B400076E0AC0F6FF0BC0F7FF0800F550075C41
:1056C400016E026AD8A0020612000101A5A16DEFC5
:1056D4002BF06FEF2BF079EF2BF018C10FF119C1FC
:1056E40010F116C111F117C112F1A6EC31F001014C
:1056F4001BBF7FEF2BF081EF2BF087EF2BF01AC14C
:105704001FF11BC120F18BEF2BF0000E206F000E58
:105714001F6F000E1E6F000E1D6F9EEF2BF0000E0C
:10572400076F200E066F16C108F117C109F150EC7E
:105734002EF001011D4B1E2B1F511D5D1E51800AB1
:105744001C6F2051800A1C59D8A0ABEF2BF0ADEF91
:105754002BF091EF2BF0A5B1B2EF2BF0B4EF2BF0BF
:10576400BEEF2BF018C10FF119C110F116C111F1E0
:1057740017C112F1A6EC31F018C100F119C101F101
:1057840090EC32F001011F510025166F20510121C8
:10579400176F1200000E0101056F03BFD6EF2BF047
:1057A400D4EF2BF0DCEF2BF0026D031FD8B0032BEA
:1057B400010E056F01BFE3EF2BF0E1EF2BF0E9EFF2
:1057C4002BF0006D011FD8B0012B010E051B000E3C
:1057D400076F000E066F02510311D8B4F4EF2BF0DB
:1057E400F6EF2BF01EEF2CF0010E046FFEEF2BF002
:1057F400D89002370337042B03AF03EF2CF005EFE7
:105804002CF0FAEF2BF0D890063707370251005DE1
:1058140003510159D8A011EF2CF013EF2CF018EF1D
:105824002CF00251005F0351015B0681D8900333D1
:105834000233042F05EF2CF00551D8B424EF2CF0DB
:1058440026EF2CF02AEF2CF0066D071FD8B0072B9B
:1058540006C100F107C101F112000101A5A135EF54
:105864002CF037EF2CF041EF2CF019C010F01AC0D7
:1058740011F017C012F018C013F011EC32F01CBE76
:1058840046EF2CF048EF2CF04EEF2CF01BC020F02C
:105894001CC021F052EF2CF0000E216E000E206E81
:1058A400000E1F6E000E1E6E64EF2CF0000E086ECC
:1058B400200E076E17C009F018C00AF09CEC2EF0F9
:1058C4001E4A1F2A20501E5C1F50800A1D6E215044
:1058D400800A1D58D8A071EF2CF073EF2CF058EF0C
:1058E4002CF00101A5B179EF2CF07BEF2CF085EFC2
:1058F4002CF019C010F01AC011F017C012F018C023
:1059040013F011EC32F019C001F01AC002F03BECB4
:1059140033F020500124176E21500220186E12001B
:10592400000E066E04BE9BEF2CF099EF2CF0A1EF55
:105934002CF0036C041ED8B0042A010E066E02BEBD
:10594400A8EF2CF0A6EF2CF0AEEF2CF0016C021EA9
:10595400D8B0022A010E061A000E086E000E076E59
:1059640003500410D8B4B9EF2CF0BBEF2CF0E3EFE4
:105974002CF0010E056EC3EF2CF0D89003360436DC
:10598400052A04AEC8EF2CF0CAEF2CF0BFEF2CF0C0
:10599400D890073608360350015C04500258D8A04A
:1059A400D6EF2CF0D8EF2CF0DDEF2CF00350015E95
:1059B4000450025A0780D89004320332052ECAEFED
:1059C4002CF00650D8B4E9EF2CF0EBEF2CF0EFEF0D
:1059D4002CF0076C081ED8B0082A07C001F008C0D4
:1059E40002F01200000E0101056F01BFFEEF2CF062
:1059F400FCEF2CF004EF2DF0006D011FD8B0012B4B
:105A0400010E056F03BF0BEF2DF009EF2DF00FEF23
:105A14002DF0026D031FD8B0032B02510311D8B42B
:105A240016EF2DF018EF2DF03CEF2DF0010E046F62
:105A340020EF2DF0D89002370337042B03AF25EF66
:105A44002DF027EF2DF01CEF2DF00251005D0351D6
:105A54000159D8A030EF2DF032EF2DF036EF2DF0B4
:105A64000251005F0351015BD89003330233042FCA
:105A740027EF2DF00551D8B442EF2DF044EF2DF06F
:105A840048EF2DF0006D011FD8B0012B00C100F1CB
:105A940001C101F11200000E066E02BE56EF2DF098
:105AA40054EF2DF05CEF2DF0016C021ED8B0022AE9
:105AB400010E066E04BE63EF2DF061EF2DF067EF6B
:105AC4002DF0036C041ED8B0042A03500410D8B47B
:105AD4006EEF2DF070EF2DF094EF2DF0010E056EAA
:105AE40078EF2DF0D89003360436052A04AE7DEF06
:105AF4002DF07FEF2DF074EF2DF00350015C045076
:105B04000258D8A088EF2DF08AEF2DF08EEF2DF0FB
:105B14000350015E0450025AD89004320332052E19
:105B24007FEF2DF00650D8B49AEF2DF09CEF2DF0B6
:105B3400A0EF2DF0016C021ED8B0022A01C001F0C2
:105B440002C002F01200000E01010015086F000EE1
:105B54000115096F800E02150A6F7F0E03150B6F76
:105B6400085109110A110B11D8A4BBEF2DF0BDEF98
:105B74002DF0C5EF2DF0000E006F000E016F000E2A
:105B8400026F000E036F000E0415086F000E05155A
:105B9400096F800E06150A6F7F0E07150B6F0851EB
:105BA40009110A110B11D8A4DAEF2DF0DCEF2DF056
:105BB400E4EF2DF0000E046F000E056F000E066F6B
:105BC400000E076F045100190FE1055101190CE192
:105BD4000651021909E107510319D8B4F4EF2DF065
:105BE400F6EF2DF0F9EF2DF0D890FAEF2DF0D880E4
:105BF4001200000E0114096E000E02140A6E800ECB
:105C040003140B6E7F0E04140C6E09500A100B1053
:105C14000C10D8A410EF2EF012EF2EF01AEF2EF085
:105C2400000E016E000E026E000E036E000E046E76
:105C3400000E0514096E000E06140A6E800E071479
:105C44000B6E7F0E08140C6E09500A100B100C100A
:105C5400D8A42FEF2EF031EF2EF039EF2EF0000EF6
:105C6400056E000E066E000E076E000E086E0550DF
:105C740001180FE1065002180CE10750031809E15E
:105C840008500418D8B449EF2EF04BEF2EF04EEF25
:105C94002EF0D8904FEF2EF0D88012000101085159
:105CA4000911D8B458EF2EF05AEF2EF063EF2EF00E
:105CB40008510911D8A461EF2EF063EF2EF068EFBC
:105CC4002EF0065143EC34F09BEF2EF020EE04F05E
:105CD4000851D9260951DA22DE50DE10D8B475EF06
:105CE4002EF077EF2EF092EF2EF020EE04F0085114
:105CF400D9260951DA2210EE02F00851E1260951A1
:105D0400E222DE50E65CE650800A0E6FDE50800A26
:105D14000E59D8B090EF2EF092EF2EF09BEF2EF0AC
:105D240020EE02F00851D9260951DA22DE2A000EAB
:105D3400DD22120009500A10D8B4A3EF2EF0A5EF0B
:105D44002EF0AEEF2EF009500A10D8A4ACEF2EF0CE
:105D5400AEEF2EF0B3EF2EF0075051EC34F0E6EF37
:105D64002EF020EE04F00950D9260A50DA22DE5033
:105D7400DE10D8B4C0EF2EF0C2EF2EF0DDEF2EF01F
:105D840020EE04F00950D9260A50DA2210EE02F06F
:105D94000950E1260A50E222DE50E65CE650800A11
:105DA4000F6EDE50800A0F58D8B0DBEF2EF0DDEF17
:105DB4002EF0E6EF2EF020EE02F00950D9260A501C
:105DC400DA22DE2A000EDD22120083928398839A5F
:105DD400839C839E410E0101046FEE0EE82EFED7D4
:105DE400042FFCD700F0030E30EC2FF0060E010157
:105DF400046F300EE82EFED7042FFCD700F0030EFC
:105E040030EC2FF0210EE82EFED700F0030E30EC1C
:105E14002FF0020E30EC2FF0010E0101026F000E84
:105E240056EC33F0030E0101046F970EE82EFED7F3
:105E3400042FFCD700D0280E0101026F000E56EC8F
:105E440033F00C0E0101026F000E56EC33F0060E17
:105E54000101026F000E56EC33F012000101016FD4
:105E6400838201C100F1010E01010017003B835040
:105E74000019EF0B0019836E01C100F1D8900033B3
:105E8400010E0017003B004783500019DF0B001977
:105E9400836E01C100F1D8900033D8900033010E15
:105EA4000017003B0047004783500019BF0B00193F
:105EB400836E01C100F1D8900033D8900033D8909C
:105EC4000033010E001700330033835000197F0B99
:105ED4000019836E100EE82EFED700D08392100EA8
:105EE400E82EFED700D01200026E838202C001F0B9
:105EF400010E0116013A83500118EF0B0118836E4D
:105F040002C001F0D8900132010E0116013A014697
:105F140083500118DF0B0118836E02C001F0D89082
:105F24000132D8900132010E0116013A01460146B0
:105F340083500118BF0B0118836E02C001F0D89082
:105F44000132D8900132D8900132010E011601328B
:105F54000132835001187F0B0118836E100EE82E56
:105F6400FED700D08392100EE82EFED700D0120088
:105F7400DBEF2FF08384030E0101966F8A0E956F79
:105F8400550EE82EFED7952FFCD7962FFAD700D0C2
:105F940083940F0E0101FA6F030EF96F000E0001D6
:105FA400C16F000EC06FFAEF2FF0FBEC2FF0FAEF89
:105FB4002FF0F9C195F1FAC196F1010196510F0A3A
:105FC400D8B4E7EF2FF0FAEF2FF09551010AD8B4C7
:105FD400FAEF2FF0030AD8B4BCEF2FF0010AD8B4BB
:105FE400FAEF2FF0070AD8B4D7EF2FF0FAEF2FF01B
:105FF4001200000E0001C16F000EC06F0F0E0101F0
:10600400FA6F010EF96F000EA86F000EA76F000E55
:106014000001B86F000EB96F000EBA6F000EBB6FAF
:10602400000EB46F000EB56F000EB66F000EB76FA2
:10603400000EBF6F000EBE6F000EBD6F000EBC6F72
:10604400000E0101A86F000EA76F8290829203ECEC
:1060540034F0170E01018F6F080E906F80EC33F04F
:10606400120089C18DF18AC18EF1000E0101A06F69
:10607400000E9F6F51EF30F087C171F188C172F14A
:106084008D0E736F010E746F8BC175F18CC176F137
:10609400F2EC14F0010171519F277251A0238DC1BC
:1060A400F6FF8EC1F7FF0800F5500009D8A45DEF94
:1060B40030F05FEF30F03EEF30F09FC187F1A0C1C8
:1060C40088F11200BF0E0101086FFF0E096F06C1AF
:1060D4000AF107C10BF108510A2709510B230B518F
:1060E4000AE11A0E0A5DD8A07AEF30F07DEF30F0A5
:1060F400010E7EEF30F0000E0C6F0D6B0C510D1184
:10610400D8B487EF30F089EF30F090EF30F0200E04
:106114000611066F0751076F94EF30F006C106F1C0
:1061240007C107F112009AC09EF09BC09FF0000EB9
:106134000101A06F000E9F6FB3EF30F098C048F0DC
:1061440099C049F09E0E4A6E000E4B6E9CC04CF0F6
:106154009DC04DF03DEC17F0485001019F27495078
:10616400A0239EC0F6FF9FC0F7FF0800F55000096A
:10617400D8A4BFEF30F0C1EF30F0A0EF30F09FC1F2
:1061840098F0A0C199F01200BF0E096EFF0E0A6EBE
:1061940007C00BF008C00CF009500B260A500C2263
:1061A4000C500AE11A0E0B5CD8A0DBEF30F0DEEFE6
:1061B40030F0010EDFEF30F0000E0D6E0E6A0D5060
:1061C4000E10D8B4E8EF30F0EAEF30F0F1EF30F031
:1061D400200E0710076E0850086EF5EF30F007C068
:1061E40007F008C008F0120002C106F103C107F16C
:1061F40000C108F101C109F101010651046F075101
:10620400056F064B072B04C1F6FF05C1F7FFF86ABB
:1062140008C1D9FF09C1DAFF084B092B070EF7643F
:1062240003D00800F55005D0F6CFE1FFF7CFE2FF29
:10623400E750DF6EDF50D8A422EF31F024EF31F0C5
:10624400FEEF30F0120003C007F004C008F001C0F4
:1062540009F002C00AF00750056E0850066E074A9E
:10626400082A05C0F6FF06C0F7FFF86A09C0D9FF7F
:106274000AC0DAFF094A0A2A070EF76403D00800A5
:10628400F55005D0F6CFE1FFF7CFE2FFE750DF6E20
:10629400DF50D8A450EF31F052EF31F02DEF31F050
:1062A4001200010E0101066F200E00190111D8B46D
:1062B4005EEF31F060EF31F079EF31F0F70E026FFD
