:020000040000FA
:0400000007EF00F016
:10000800028209ED00F080EF00F00600F2A20FEF87
:1000180000F011EF00F021EF00F083B016EF00F0D0
:1000280019EF00F0010E1AEF00F0000EFF0A016E42
:1000380083500118FE0B0118836EF0A026EF00F024
:1000480028EF00F039EF00F083B22DEF00F030EF29
:1000580000F0010E31EF00F0000EFF0A016E0146BC
:1000680083500118FD0B0118836EF0A23EEF00F0DB
:1000780040EF00F052EF00F083B445EF00F048EF96
:1000880000F0010E49EF00F0000EFF0A016E014674
:10009800014683500118FB0B0118836EF292F09011
:1000A800F092029211009D9CF28CF28E000EF16E7D
:1000B800000EF06EF292F288F090F086F092F088DE
:1000C800F090F092F28E120095909592959493800C
:1000D8009382938493809382938412008390839273
:1000E800839468EC00F057EC00F0120072EC00F01A
:1000F8007CEF00F007EF00F00290029200017AEF27
:0201080000F005
:020000040020DA
:08000000FFFFFFFFFFFFFFFF00
:020000040030CA
:0E00000000051F1FFF8185FF0FC00FE00F409E
:00000001FF
